{
  "_format": "hh-sol-artifact-1",
  "contractName": "EnrollmentSystem",
  "sourceName": "contracts/EnrollmentSystem.sol",
  "abi": [
    {
      "inputs": [],
      "stateMutability": "nonpayable",
      "type": "constructor"
    },
    {
      "anonymous": false,
      "inputs": [
        {
          "indexed": false,
          "internalType": "string",
          "name": "applicationId",
          "type": "string"
        },
        {
          "indexed": false,
          "internalType": "string",
          "name": "status",
          "type": "string"
        },
        {
          "indexed": false,
          "internalType": "uint256",
          "name": "timestamp",
          "type": "uint256"
        }
      ],
      "name": "ApplicationStatusChanged",
      "type": "event"
    },
    {
      "anonymous": false,
      "inputs": [
        {
          "indexed": false,
          "internalType": "string",
          "name": "applicationId",
          "type": "string"
        },
        {
          "indexed": false,
          "internalType": "uint256",
          "name": "deadlineTimestamp",
          "type": "uint256"
        }
      ],
      "name": "DeadlineSet",
      "type": "event"
    },
    {
      "anonymous": false,
      "inputs": [
        {
          "indexed": false,
          "internalType": "string",
          "name": "applicationId",
          "type": "string"
        },
        {
          "indexed": false,
          "internalType": "string",
          "name": "documentType",
          "type": "string"
        },
        {
          "indexed": false,
          "internalType": "string",
          "name": "status",
          "type": "string"
        },
        {
          "indexed": false,
          "internalType": "address",
          "name": "reviewer",
          "type": "address"
        },
        {
          "indexed": false,
          "internalType": "uint256",
          "name": "timestamp",
          "type": "uint256"
        }
      ],
      "name": "DocumentReviewed",
      "type": "event"
    },
    {
      "anonymous": false,
      "inputs": [
        {
          "indexed": false,
          "internalType": "string",
          "name": "applicationId",
          "type": "string"
        },
        {
          "indexed": false,
          "internalType": "string",
          "name": "documentType",
          "type": "string"
        },
        {
          "indexed": false,
          "internalType": "string",
          "name": "documentHash",
          "type": "string"
        },
        {
          "indexed": false,
          "internalType": "uint256",
          "name": "timestamp",
          "type": "uint256"
        }
      ],
      "name": "DocumentUploaded",
      "type": "event"
    },
    {
      "anonymous": false,
      "inputs": [
        {
          "indexed": false,
          "internalType": "string",
          "name": "applicationId",
          "type": "string"
        },
        {
          "indexed": false,
          "internalType": "address",
          "name": "actor",
          "type": "address"
        },
        {
          "indexed": false,
          "internalType": "string",
          "name": "action",
          "type": "string"
        },
        {
          "indexed": false,
          "internalType": "uint256",
          "name": "timestamp",
          "type": "uint256"
        }
      ],
      "name": "LogRecorded",
      "type": "event"
    },
    {
      "anonymous": false,
      "inputs": [
        {
          "indexed": false,
          "internalType": "string",
          "name": "applicationId",
          "type": "string"
        },
        {
          "indexed": false,
          "internalType": "string",
          "name": "dataHash",
          "type": "string"
        },
        {
          "indexed": false,
          "internalType": "uint256",
          "name": "timestamp",
          "type": "uint256"
        }
      ],
      "name": "StudentRegistered",
      "type": "event"
    },
    {
      "inputs": [
        {
          "internalType": "string",
          "name": "applicationId",
          "type": "string"
        },
        {
          "internalType": "string",
          "name": "documentType",
          "type": "string"
        },
        {
          "internalType": "string",
          "name": "documentHash",
          "type": "string"
        }
      ],
      "name": "addDocument",
      "outputs": [],
      "stateMutability": "nonpayable",
      "type": "function"
    },
    {
      "inputs": [],
      "name": "admin",
      "outputs": [
        {
          "internalType": "address",
          "name": "",
          "type": "address"
        }
      ],
      "stateMutability": "view",
      "type": "function"
    },
    {
      "inputs": [
        {
          "internalType": "string",
          "name": "",
          "type": "string"
        }
      ],
      "name": "applications",
      "outputs": [
        {
          "internalType": "bool",
          "name": "exists",
          "type": "bool"
        },
        {
          "internalType": "string",
          "name": "status",
          "type": "string"
        },
        {
          "internalType": "uint256",
          "name": "submissionTime",
          "type": "uint256"
        },
        {
          "internalType": "uint256",
          "name": "deadlineTimestamp",
          "type": "uint256"
        }
      ],
      "stateMutability": "view",
      "type": "function"
    },
    {
      "inputs": [
        {
          "internalType": "string",
          "name": "",
          "type": "string"
        },
        {
          "internalType": "uint256",
          "name": "",
          "type": "uint256"
        }
      ],
      "name": "auditLogs",
      "outputs": [
        {
          "internalType": "address",
          "name": "actor",
          "type": "address"
        },
        {
          "internalType": "string",
          "name": "action",
          "type": "string"
        },
        {
          "internalType": "string",
          "name": "details",
          "type": "string"
        },
        {
          "internalType": "uint256",
          "name": "timestamp",
          "type": "uint256"
        }
      ],
      "stateMutability": "view",
      "type": "function"
    },
    {
      "inputs": [
        {
          "internalType": "string",
          "name": "",
          "type": "string"
        },
        {
          "internalType": "string",
          "name": "",
          "type": "string"
        }
      ],
      "name": "documents",
      "outputs": [
        {
          "internalType": "bool",
          "name": "exists",
          "type": "bool"
        },
        {
          "internalType": "string",
          "name": "documentHash",
          "type": "string"
        },
        {
          "internalType": "string",
          "name": "documentType",
          "type": "string"
        },
        {
          "internalType": "string",
          "name": "status",
          "type": "string"
        },
        {
          "internalType": "address",
          "name": "reviewedBy",
          "type": "address"
        },
        {
          "internalType": "uint256",
          "name": "uploadTime",
          "type": "uint256"
        },
        {
          "internalType": "uint256",
          "name": "reviewTime",
          "type": "uint256"
        },
        {
          "internalType": "string",
          "name": "rejectionReason",
          "type": "string"
        }
      ],
      "stateMutability": "view",
      "type": "function"
    },
    {
      "inputs": [
        {
          "internalType": "string",
          "name": "applicationId",
          "type": "string"
        }
      ],
      "name": "isWithinDeadline",
      "outputs": [
        {
          "internalType": "bool",
          "name": "",
          "type": "bool"
        }
      ],
      "stateMutability": "view",
      "type": "function"
    },
    {
      "inputs": [
        {
          "internalType": "string",
          "name": "applicationId",
          "type": "string"
        },
        {
          "internalType": "string",
          "name": "action",
          "type": "string"
        },
        {
          "internalType": "string",
          "name": "details",
          "type": "string"
        }
      ],
      "name": "recordAuditLog",
      "outputs": [],
      "stateMutability": "nonpayable",
      "type": "function"
    },
    {
      "inputs": [
        {
          "internalType": "string",
          "name": "applicationId",
          "type": "string"
        },
        {
          "internalType": "string",
          "name": "dataHash",
          "type": "string"
        }
      ],
      "name": "registerStudent",
      "outputs": [],
      "stateMutability": "nonpayable",
      "type": "function"
    },
    {
      "inputs": [
        {
          "internalType": "string",
          "name": "applicationId",
          "type": "string"
        },
        {
          "internalType": "string",
          "name": "documentType",
          "type": "string"
        },
        {
          "internalType": "string",
          "name": "status",
          "type": "string"
        },
        {
          "internalType": "string",
          "name": "rejectionReason",
          "type": "string"
        }
      ],
      "name": "reviewDocument",
      "outputs": [],
      "stateMutability": "nonpayable",
      "type": "function"
    },
    {
      "inputs": [
        {
          "internalType": "string",
          "name": "applicationId",
          "type": "string"
        },
        {
          "internalType": "uint256",
          "name": "deadlineTimestamp",
          "type": "uint256"
        }
      ],
      "name": "setDeadline",
      "outputs": [],
      "stateMutability": "nonpayable",
      "type": "function"
    },
    {
      "inputs": [
        {
          "internalType": "string",
          "name": "",
          "type": "string"
        }
      ],
      "name": "students",
      "outputs": [
        {
          "internalType": "bool",
          "name": "exists",
          "type": "bool"
        },
        {
          "internalType": "bool",
          "name": "verified",
          "type": "bool"
        },
        {
          "internalType": "string",
          "name": "dataHash",
          "type": "string"
        },
        {
          "internalType": "uint256",
          "name": "registrationTime",
          "type": "uint256"
        }
      ],
      "stateMutability": "view",
      "type": "function"
    },
    {
      "inputs": [
        {
          "internalType": "string",
          "name": "applicationId",
          "type": "string"
        },
        {
          "internalType": "string",
          "name": "status",
          "type": "string"
        }
      ],
      "name": "updateApplicationStatus",
      "outputs": [],
      "stateMutability": "nonpayable",
      "type": "function"
    },
    {
      "inputs": [
        {
          "internalType": "string",
          "name": "applicationId",
          "type": "string"
        }
      ],
      "name": "verifyStudent",
      "outputs": [],
      "stateMutability": "nonpayable",
      "type": "function"
    }
  ],
  "bytecode": "0x608060405234801561001057600080fd5b50336000806101000a81548173ffffffffffffffffffffffffffffffffffffffff021916908373ffffffffffffffffffffffffffffffffffffffff1602179055506131cf806100606000396000f3fe608060405234801561001057600080fd5b50600436106100cf5760003560e01c80638db1655a1161008c578063c7ef6bfb11610066578063c7ef6bfb146101fe578063cda78de814610231578063f5c6dec114610268578063f851a44014610298576100cf565b80638db1655a146101aa5780639eaa9432146101c6578063afcd23f2146101e2576100cf565b80630a1b776c146100d45780630f65d1a6146100f0578063185f48821461010c57806324d8b90f1461013f57806336a8915b1461017257806387d8a84e1461018e575b600080fd5b6100ee60048036038101906100e99190611e4c565b6102b6565b005b61010a60048036038101906101059190611ec4565b6105a0565b005b61012660048036038101906101219190611f9b565b6109ae565b6040516101369493929190612097565b60405180910390f35b6101596004803603810190610154919061210f565b610a89565b60405161016994939291906121ac565b60405180910390f35b61018c600480360381019061018791906121ff565b610c1c565b005b6101a860048036038101906101a39190611f9b565b610fb6565b005b6101c460048036038101906101bf9190611e4c565b6111d3565b005b6101e060048036038101906101db91906121ff565b61139d565b005b6101fc60048036038101906101f7919061210f565b6113ae565b005b61021860048036038101906102139190611f9b565b6115b7565b60405161022894939291906122a6565b60405180910390f35b61024b60048036038101906102469190611e4c565b61169f565b60405161025f9897969594939291906122f2565b60405180910390f35b610282600480360381019061027d9190611f9b565b61196d565b60405161028f919061238c565b60405180910390f35b6102a0611a22565b6040516102ad91906123a7565b60405180910390f35b60008054906101000a900473ffffffffffffffffffffffffffffffffffffffff1673ffffffffffffffffffffffffffffffffffffffff163373ffffffffffffffffffffffffffffffffffffffff1614610344576040517f08c379a000000000000000000000000000000000000000000000000000000000815260040161033b90612434565b60405180910390fd5b6001826040516103549190612490565b908152602001604051809103902060000160009054906101000a900460ff16156103b3576040517f08c379a00000000000000000000000000000000000000000000000000000000081526004016103aa906124f3565b60405180910390fd5b6040518060800160405280600115158152602001600015158152602001828152602001428152506001836040516103ea9190612490565b908152602001604051809103902060008201518160000160006101000a81548160ff02191690831515021790555060208201518160000160016101000a81548160ff021916908315150217905550604082015181600101908161044d919061271f565b5060608201518160020155905050600060038360405161046d9190612490565b9081526020016040518091039020905060018160000160006101000a81548160ff0219169083151502179055506040518060400160405280600981526020017f7375626d697474656400000000000000000000000000000000000000000000008152508160010190816104e0919061271f565b5042816002018190555061056083336040518060400160405280601281526020017f53545544454e545f5245474953544552454400000000000000000000000000008152506040518060400160405280601481526020017f53747564656e7420726567697374726174696f6e000000000000000000000000815250611a46565b7f96336a19de11b134d0c78d80f475646ca6f1f336a950b8bdd27f5534920659a8838342604051610593939291906127f1565b60405180910390a1505050565b60008054906101000a900473ffffffffffffffffffffffffffffffffffffffff1673ffffffffffffffffffffffffffffffffffffffff163373ffffffffffffffffffffffffffffffffffffffff161461062e576040517f08c379a0000000000000000000000000000000000000000000000000000000008152600401610625906128a8565b60405180910390fd5b60018460405161063e9190612490565b908152602001604051809103902060000160009054906101000a900460ff1661069c576040517f08c379a000000000000000000000000000000000000000000000000000000000815260040161069390612914565b60405180910390fd5b6002846040516106ac9190612490565b9081526020016040518091039020836040516106c89190612490565b908152602001604051809103902060000160009054906101000a900460ff16610726576040517f08c379a000000000000000000000000000000000000000000000000000000000815260040161071d90612980565b60405180910390fd5b604051602001610735906129ec565b604051602081830303815290604052805190602001208260405160200161075c9190612490565b6040516020818303038152906040528051906020012014806107c7575060405160200161078890612a4d565b60405160208183030381529060405280519060200120826040516020016107af9190612490565b60405160208183030381529060405280519060200120145b610806576040517f08c379a00000000000000000000000000000000000000000000000000000000081526004016107fd90612ad4565b60405180910390fd5b60006002856040516108189190612490565b9081526020016040518091039020846040516108349190612490565b9081526020016040518091039020905082816003019081610855919061271f565b50338160040160006101000a81548173ffffffffffffffffffffffffffffffffffffffff021916908373ffffffffffffffffffffffffffffffffffffffff1602179055504281600601819055506040516020016108b190612a4d565b60405160208183030381529060405280519060200120836040516020016108d89190612490565b60405160208183030381529060405280519060200120036109065781816007019081610904919061271f565b505b61096885336040518060400160405280601181526020017f444f43554d454e545f52455649455745440000000000000000000000000000008152508787604051602001610954929190612b8c565b604051602081830303815290604052611a46565b7fabfd72f9ddbced01ce75ce5481133c3fd05f99c5b7c38f15205e18c9d5e5a447858585334260405161099f959493929190612bc6565b60405180910390a15050505050565b6003818051602081018201805184825260208301602085012081835280955050505050506000915090508060000160009054906101000a900460ff16908060010180546109fa90612542565b80601f0160208091040260200160405190810160405280929190818152602001828054610a2690612542565b8015610a735780601f10610a4857610100808354040283529160200191610a73565b820191906000526020600020905b815481529060010190602001808311610a5657829003601f168201915b5050505050908060020154908060050154905084565b6004828051602081018201805184825260208301602085012081835280955050505050508181548110610abb57600080fd5b9060005260206000209060040201600091509150508060000160009054906101000a900473ffffffffffffffffffffffffffffffffffffffff1690806001018054610b0590612542565b80601f0160208091040260200160405190810160405280929190818152602001828054610b3190612542565b8015610b7e5780601f10610b5357610100808354040283529160200191610b7e565b820191906000526020600020905b815481529060010190602001808311610b6157829003601f168201915b505050505090806002018054610b9390612542565b80601f0160208091040260200160405190810160405280929190818152602001828054610bbf90612542565b8015610c0c5780601f10610be157610100808354040283529160200191610c0c565b820191906000526020600020905b815481529060010190602001808311610bef57829003601f168201915b5050505050908060030154905084565b600183604051610c2c9190612490565b908152602001604051809103902060000160009054906101000a900460ff16610c8a576040517f08c379a0000000000000000000000000000000000000000000000000000000008152600401610c8190612914565b60405180910390fd5b600283604051610c9a9190612490565b908152602001604051809103902082604051610cb69190612490565b908152602001604051809103902060000160009054906101000a900460ff1615610d15576040517f08c379a0000000000000000000000000000000000000000000000000000000008152600401610d0c90612c7a565b60405180910390fd5b6040518061010001604052806001151581526020018281526020018381526020016040518060400160405280600781526020017f70656e64696e67000000000000000000000000000000000000000000000000008152508152602001600073ffffffffffffffffffffffffffffffffffffffff1681526020014281526020016000815260200160405180602001604052806000815250815250600284604051610dbe9190612490565b908152602001604051809103902083604051610dda9190612490565b908152602001604051809103902060008201518160000160006101000a81548160ff0219169083151502179055506020820151816001019081610e1d919061271f565b506040820151816002019081610e33919061271f565b506060820151816003019081610e49919061271f565b5060808201518160040160006101000a81548173ffffffffffffffffffffffffffffffffffffffff021916908373ffffffffffffffffffffffffffffffffffffffff16021790555060a0820151816005015560c0820151816006015560e0820151816007019081610eba919061271f565b509050506001600384604051610ed09190612490565b908152602001604051809103902060040183604051610eef9190612490565b908152602001604051809103902060006101000a81548160ff021916908315150217905550610f7483336040518060400160405280601181526020017f444f43554d454e545f55504c4f4144454400000000000000000000000000000081525085604051602001610f609190612ce6565b604051602081830303815290604052611a46565b7fa8de9c4c8787288b3934a57aca511a6d17074f9ab3f4343860844302e346f5f283838342604051610fa99493929190612d08565b60405180910390a1505050565b60008054906101000a900473ffffffffffffffffffffffffffffffffffffffff1673ffffffffffffffffffffffffffffffffffffffff163373ffffffffffffffffffffffffffffffffffffffff1614611044576040517f08c379a000000000000000000000000000000000000000000000000000000000815260040161103b906128a8565b60405180910390fd5b6001816040516110549190612490565b908152602001604051809103902060000160009054906101000a900460ff166110b2576040517f08c379a00000000000000000000000000000000000000000000000000000000081526004016110a990612914565b60405180910390fd5b6001816040516110c29190612490565b908152602001604051809103902060000160019054906101000a900460ff1615611121576040517f08c379a000000000000000000000000000000000000000000000000000000000815260040161111890612dae565b60405180910390fd5b600180826040516111329190612490565b908152602001604051809103902060000160016101000a81548160ff0219169083151502179055506111d081336040518060400160405280601081526020017f53545544454e545f5645524946494544000000000000000000000000000000008152506040518060400160405280601481526020017f53747564656e7420766572696669636174696f6e000000000000000000000000815250611a46565b50565b60008054906101000a900473ffffffffffffffffffffffffffffffffffffffff1673ffffffffffffffffffffffffffffffffffffffff163373ffffffffffffffffffffffffffffffffffffffff1614611261576040517f08c379a0000000000000000000000000000000000000000000000000000000008152600401611258906128a8565b60405180910390fd5b6003826040516112719190612490565b908152602001604051809103902060000160009054906101000a900460ff166112cf576040517f08c379a00000000000000000000000000000000000000000000000000000000081526004016112c690612e1a565b60405180910390fd5b806003836040516112e09190612490565b908152602001604051809103902060010190816112fd919061271f565b5061135e82336040518060400160405280601a81526020017f4150504c49434154494f4e5f5354415455535f555044415445440000000000008152508460405160200161134a9190612e86565b604051602081830303815290604052611a46565b7f2f31a519505e6ea83ea92d4e2be8152636a26156602859f0463da6ba9c29cae0828242604051611391939291906127f1565b60405180910390a15050565b6113a983338484611a46565b505050565b60008054906101000a900473ffffffffffffffffffffffffffffffffffffffff1673ffffffffffffffffffffffffffffffffffffffff163373ffffffffffffffffffffffffffffffffffffffff161461143c576040517f08c379a000000000000000000000000000000000000000000000000000000000815260040161143390612434565b60405180910390fd5b60038260405161144c9190612490565b908152602001604051809103902060000160009054906101000a900460ff166114aa576040517f08c379a00000000000000000000000000000000000000000000000000000000081526004016114a190612e1a565b60405180910390fd5b4281116114ec576040517f08c379a00000000000000000000000000000000000000000000000000000000081526004016114e390612ef4565b60405180910390fd5b806003836040516114fd9190612490565b90815260200160405180910390206005018190555061157a82336040518060400160405280600c81526020017f444541444c494e455f534554000000000000000000000000000000000000000081525061155685611b8c565b6040516020016115669190612f60565b604051602081830303815290604052611a46565b7f052570264eb8a0348e0e4a1b1bb79b2604498d7014527901e93344a3cb09d55582826040516115ab929190612f82565b60405180910390a15050565b6001818051602081018201805184825260208301602085012081835280955050505050506000915090508060000160009054906101000a900460ff16908060000160019054906101000a900460ff169080600101805461161690612542565b80601f016020809104026020016040519081016040528092919081815260200182805461164290612542565b801561168f5780601f106116645761010080835404028352916020019161168f565b820191906000526020600020905b81548152906001019060200180831161167257829003601f168201915b5050505050908060020154905084565b60028280516020810182018051848252602083016020850120818352809550505050505081805160208101820180518482526020830160208501208183528095505050505050600091509150508060000160009054906101000a900460ff169080600101805461170e90612542565b80601f016020809104026020016040519081016040528092919081815260200182805461173a90612542565b80156117875780601f1061175c57610100808354040283529160200191611787565b820191906000526020600020905b81548152906001019060200180831161176a57829003601f168201915b50505050509080600201805461179c90612542565b80601f01602080910402602001604051908101604052809291908181526020018280546117c890612542565b80156118155780601f106117ea57610100808354040283529160200191611815565b820191906000526020600020905b8154815290600101906020018083116117f857829003601f168201915b50505050509080600301805461182a90612542565b80601f016020809104026020016040519081016040528092919081815260200182805461185690612542565b80156118a35780601f10611878576101008083540402835291602001916118a3565b820191906000526020600020905b81548152906001019060200180831161188657829003601f168201915b5050505050908060040160009054906101000a900473ffffffffffffffffffffffffffffffffffffffff16908060050154908060060154908060070180546118ea90612542565b80601f016020809104026020016040519081016040528092919081815260200182805461191690612542565b80156119635780601f1061193857610100808354040283529160200191611963565b820191906000526020600020905b81548152906001019060200180831161194657829003601f168201915b5050505050905088565b600060038260405161197f9190612490565b908152602001604051809103902060000160009054906101000a900460ff166119dd576040517f08c379a00000000000000000000000000000000000000000000000000000000081526004016119d490612e1a565b60405180910390fd5b60006003836040516119ef9190612490565b908152602001604051809103902060050154905060008103611a15576001915050611a1d565b804211159150505b919050565b60008054906101000a900473ffffffffffffffffffffffffffffffffffffffff1681565b600060405180608001604052808573ffffffffffffffffffffffffffffffffffffffff168152602001848152602001838152602001428152509050600485604051611a919190612490565b908152602001604051809103902081908060018154018082558091505060019003906000526020600020906004020160009091909190915060008201518160000160006101000a81548173ffffffffffffffffffffffffffffffffffffffff021916908373ffffffffffffffffffffffffffffffffffffffff1602179055506020820151816001019081611b25919061271f565b506040820151816002019081611b3b919061271f565b506060820151816003015550507f894124ab7c74b0e9a122d53df4981f2179d417659c9f76ff9acda517ac4c42b985858542604051611b7d9493929190612fb2565b60405180910390a15050505050565b606060008203611bd3576040518060400160405280600181526020017f30000000000000000000000000000000000000000000000000000000000000008152509050611ced565b600082905060005b60008214611c05578080611bee90613034565b915050600a82611bfe91906130ab565b9150611bdb565b60008167ffffffffffffffff811115611c2157611c20611d21565b5b6040519080825280601f01601f191660200182016040528015611c535781602001600182028036833780820191505090505b50905060008290508593505b60008414611ce557600a84611c7491906130dc565b6030611c80919061310d565b60f81b8282611c8e90613141565b92508281518110611ca257611ca161316a565b5b60200101907effffffffffffffffffffffffffffffffffffffffffffffffffffffffffffff1916908160001a905350600a84611cde91906130ab565b9350611c5f565b819450505050505b919050565b6000604051905090565b600080fd5b600080fd5b600080fd5b600080fd5b6000601f19601f8301169050919050565b7f4e487b7100000000000000000000000000000000000000000000000000000000600052604160045260246000fd5b611d5982611d10565b810181811067ffffffffffffffff82111715611d7857611d77611d21565b5b80604052505050565b6000611d8b611cf2565b9050611d978282611d50565b919050565b600067ffffffffffffffff821115611db757611db6611d21565b5b611dc082611d10565b9050602081019050919050565b82818337600083830152505050565b6000611def611dea84611d9c565b611d81565b905082815260208101848484011115611e0b57611e0a611d0b565b5b611e16848285611dcd565b509392505050565b600082601f830112611e3357611e32611d06565b5b8135611e43848260208601611ddc565b91505092915050565b60008060408385031215611e6357611e62611cfc565b5b600083013567ffffffffffffffff811115611e8157611e80611d01565b5b611e8d85828601611e1e565b925050602083013567ffffffffffffffff811115611eae57611ead611d01565b5b611eba85828601611e1e565b9150509250929050565b60008060008060808587031215611ede57611edd611cfc565b5b600085013567ffffffffffffffff811115611efc57611efb611d01565b5b611f0887828801611e1e565b945050602085013567ffffffffffffffff811115611f2957611f28611d01565b5b611f3587828801611e1e565b935050604085013567ffffffffffffffff811115611f5657611f55611d01565b5b611f6287828801611e1e565b925050606085013567ffffffffffffffff811115611f8357611f82611d01565b5b611f8f87828801611e1e565b91505092959194509250565b600060208284031215611fb157611fb0611cfc565b5b600082013567ffffffffffffffff811115611fcf57611fce611d01565b5b611fdb84828501611e1e565b91505092915050565b60008115159050919050565b611ff981611fe4565b82525050565b600081519050919050565b600082825260208201905092915050565b60005b8381101561203957808201518184015260208101905061201e565b60008484015250505050565b600061205082611fff565b61205a818561200a565b935061206a81856020860161201b565b61207381611d10565b840191505092915050565b6000819050919050565b6120918161207e565b82525050565b60006080820190506120ac6000830187611ff0565b81810360208301526120be8186612045565b90506120cd6040830185612088565b6120da6060830184612088565b95945050505050565b6120ec8161207e565b81146120f757600080fd5b50565b600081359050612109816120e3565b92915050565b6000806040838503121561212657612125611cfc565b5b600083013567ffffffffffffffff81111561214457612143611d01565b5b61215085828601611e1e565b9250506020612161858286016120fa565b9150509250929050565b600073ffffffffffffffffffffffffffffffffffffffff82169050919050565b60006121968261216b565b9050919050565b6121a68161218b565b82525050565b60006080820190506121c1600083018761219d565b81810360208301526121d38186612045565b905081810360408301526121e78185612045565b90506121f66060830184612088565b95945050505050565b60008060006060848603121561221857612217611cfc565b5b600084013567ffffffffffffffff81111561223657612235611d01565b5b61224286828701611e1e565b935050602084013567ffffffffffffffff81111561226357612262611d01565b5b61226f86828701611e1e565b925050604084013567ffffffffffffffff8111156122905761228f611d01565b5b61229c86828701611e1e565b9150509250925092565b60006080820190506122bb6000830187611ff0565b6122c86020830186611ff0565b81810360408301526122da8185612045565b90506122e96060830184612088565b95945050505050565b600061010082019050612308600083018b611ff0565b818103602083015261231a818a612045565b9050818103604083015261232e8189612045565b905081810360608301526123428188612045565b9050612351608083018761219d565b61235e60a0830186612088565b61236b60c0830185612088565b81810360e083015261237d8184612045565b90509998505050505050505050565b60006020820190506123a16000830184611ff0565b92915050565b60006020820190506123bc600083018461219d565b92915050565b7f4f6e6c792061646d696e2063616e2063616c6c20746869732066756e6374696f60008201527f6e00000000000000000000000000000000000000000000000000000000000000602082015250565b600061241e60218361200a565b9150612429826123c2565b604082019050919050565b6000602082019050818103600083015261244d81612411565b9050919050565b600081905092915050565b600061246a82611fff565b6124748185612454565b935061248481856020860161201b565b80840191505092915050565b600061249c828461245f565b915081905092915050565b7f53747564656e7420616c72656164792065786973747300000000000000000000600082015250565b60006124dd60168361200a565b91506124e8826124a7565b602082019050919050565b6000602082019050818103600083015261250c816124d0565b9050919050565b7f4e487b7100000000000000000000000000000000000000000000000000000000600052602260045260246000fd5b6000600282049050600182168061255a57607f821691505b60208210810361256d5761256c612513565b5b50919050565b60008190508160005260206000209050919050565b60006020601f8301049050919050565b600082821b905092915050565b6000600883026125d57fffffffffffffffffffffffffffffffffffffffffffffffffffffffffffffffff82612598565b6125df8683612598565b95508019841693508086168417925050509392505050565b6000819050919050565b600061261c6126176126128461207e565b6125f7565b61207e565b9050919050565b6000819050919050565b61263683612601565b61264a61264282612623565b8484546125a5565b825550505050565b600090565b61265f612652565b61266a81848461262d565b505050565b5b8181101561268e57612683600082612657565b600181019050612670565b5050565b601f8211156126d3576126a481612573565b6126ad84612588565b810160208510156126bc578190505b6126d06126c885612588565b83018261266f565b50505b505050565b600082821c905092915050565b60006126f6600019846008026126d8565b1980831691505092915050565b600061270f83836126e5565b9150826002028217905092915050565b61272882611fff565b67ffffffffffffffff81111561274157612740611d21565b5b61274b8254612542565b612756828285612692565b600060209050601f8311600181146127895760008415612777578287015190505b6127818582612703565b8655506127e9565b601f19841661279786612573565b60005b828110156127bf5784890151825560018201915060208501945060208101905061279a565b868310156127dc57848901516127d8601f8916826126e5565b8355505b6001600288020188555050505b505050505050565b6000606082019050818103600083015261280b8186612045565b9050818103602083015261281f8185612045565b905061282e6040830184612088565b949350505050565b7f4f6e6c792073746166662063616e2063616c6c20746869732066756e6374696f60008201527f6e00000000000000000000000000000000000000000000000000000000000000602082015250565b600061289260218361200a565b915061289d82612836565b604082019050919050565b600060208201905081810360008301526128c181612885565b9050919050565b7f53747564656e7420646f6573206e6f7420657869737400000000000000000000600082015250565b60006128fe60168361200a565b9150612909826128c8565b602082019050919050565b6000602082019050818103600083015261292d816128f1565b9050919050565b7f446f63756d656e7420646f6573206e6f74206578697374000000000000000000600082015250565b600061296a60178361200a565b915061297582612934565b602082019050919050565b600060208201905081810360008301526129998161295d565b9050919050565b7f617070726f766564000000000000000000000000000000000000000000000000600082015250565b60006129d6600883612454565b91506129e1826129a0565b600882019050919050565b60006129f7826129c9565b9150819050919050565b7f72656a6563746564000000000000000000000000000000000000000000000000600082015250565b6000612a37600883612454565b9150612a4282612a01565b600882019050919050565b6000612a5882612a2a565b9150819050919050565b7f537461747573206d7573742062652027617070726f76656427206f722027726560008201527f6a65637465642700000000000000000000000000000000000000000000000000602082015250565b6000612abe60278361200a565b9150612ac982612a62565b604082019050919050565b60006020820190508181036000830152612aed81612ab1565b9050919050565b7f446f63756d656e742072657669657765643a2000000000000000000000000000600082015250565b6000612b2a601383612454565b9150612b3582612af4565b601382019050919050565b7f202d200000000000000000000000000000000000000000000000000000000000600082015250565b6000612b76600383612454565b9150612b8182612b40565b600382019050919050565b6000612b9782612b1d565b9150612ba3828561245f565b9150612bae82612b69565b9150612bba828461245f565b91508190509392505050565b600060a0820190508181036000830152612be08188612045565b90508181036020830152612bf48187612045565b90508181036040830152612c088186612045565b9050612c17606083018561219d565b612c246080830184612088565b9695505050505050565b7f446f63756d656e7420616c726561647920657869737473000000000000000000600082015250565b6000612c6460178361200a565b9150612c6f82612c2e565b602082019050919050565b60006020820190508181036000830152612c9381612c57565b9050919050565b7f446f63756d656e742075706c6f616465643a2000000000000000000000000000600082015250565b6000612cd0601383612454565b9150612cdb82612c9a565b601382019050919050565b6000612cf182612cc3565b9150612cfd828461245f565b915081905092915050565b60006080820190508181036000830152612d228187612045565b90508181036020830152612d368186612045565b90508181036040830152612d4a8185612045565b9050612d596060830184612088565b95945050505050565b7f53747564656e7420616c72656164792076657269666965640000000000000000600082015250565b6000612d9860188361200a565b9150612da382612d62565b602082019050919050565b60006020820190508181036000830152612dc781612d8b565b9050919050565b7f4170706c69636174696f6e20646f6573206e6f74206578697374000000000000600082015250565b6000612e04601a8361200a565b9150612e0f82612dce565b602082019050919050565b60006020820190508181036000830152612e3381612df7565b9050919050565b7f4170706c69636174696f6e20737461747573207570646174656420746f3a2000600082015250565b6000612e70601f83612454565b9150612e7b82612e3a565b601f82019050919050565b6000612e9182612e63565b9150612e9d828461245f565b915081905092915050565b7f446561646c696e65206d75737420626520696e20746865206675747572650000600082015250565b6000612ede601e8361200a565b9150612ee982612ea8565b602082019050919050565b60006020820190508181036000830152612f0d81612ed1565b9050919050565b7f446561646c696e652073657420666f723a200000000000000000000000000000600082015250565b6000612f4a601283612454565b9150612f5582612f14565b601282019050919050565b6000612f6b82612f3d565b9150612f77828461245f565b915081905092915050565b60006040820190508181036000830152612f9c8185612045565b9050612fab6020830184612088565b9392505050565b60006080820190508181036000830152612fcc8187612045565b9050612fdb602083018661219d565b8181036040830152612fed8185612045565b9050612ffc6060830184612088565b95945050505050565b7f4e487b7100000000000000000000000000000000000000000000000000000000600052601160045260246000fd5b600061303f8261207e565b91507fffffffffffffffffffffffffffffffffffffffffffffffffffffffffffffffff820361307157613070613005565b5b600182019050919050565b7f4e487b7100000000000000000000000000000000000000000000000000000000600052601260045260246000fd5b60006130b68261207e565b91506130c18361207e565b9250826130d1576130d061307c565b5b828204905092915050565b60006130e78261207e565b91506130f28361207e565b9250826131025761310161307c565b5b828206905092915050565b60006131188261207e565b91506131238361207e565b925082820190508082111561313b5761313a613005565b5b92915050565b600061314c8261207e565b91506000820361315f5761315e613005565b5b600182039050919050565b7f4e487b7100000000000000000000000000000000000000000000000000000000600052603260045260246000fdfea26469706673582212200ac0ff9006aec8393128d0d734be0fbecc8fe4e6de53850881c08b8a0026af1d64736f6c63430008110033",
  "linkReferences": {},
  "deployedLinkReferences": {}
}