{
  "_format": "hh-sol-artifact-1",
  "contractName": "EnrollmentSystem",
  "sourceName": "contracts/EnrollmentSystem.sol",
  "abi": [
    {
      "inputs": [],
      "stateMutability": "nonpayable",
      "type": "constructor"
    },
    {
      "anonymous": false,
      "inputs": [
        {
          "indexed": false,
          "internalType": "string",
          "name": "applicationId",
          "type": "string"
        },
        {
          "indexed": false,
          "internalType": "string",
          "name": "status",
          "type": "string"
        },
        {
          "indexed": false,
          "internalType": "uint256",
          "name": "timestamp",
          "type": "uint256"
        }
      ],
      "name": "ApplicationStatusChanged",
      "type": "event"
    },
    {
      "anonymous": false,
      "inputs": [
        {
          "indexed": false,
          "internalType": "string",
          "name": "applicationId",
          "type": "string"
        },
        {
          "indexed": false,
          "internalType": "uint256",
          "name": "deadlineTimestamp",
          "type": "uint256"
        }
      ],
      "name": "DeadlineSet",
      "type": "event"
    },
    {
      "anonymous": false,
      "inputs": [
        {
          "indexed": false,
          "internalType": "string",
          "name": "applicationId",
          "type": "string"
        },
        {
          "indexed": false,
          "internalType": "string",
          "name": "documentType",
          "type": "string"
        },
        {
          "indexed": false,
          "internalType": "string",
          "name": "status",
          "type": "string"
        },
        {
          "indexed": false,
          "internalType": "address",
          "name": "reviewer",
          "type": "address"
        },
        {
          "indexed": false,
          "internalType": "uint256",
          "name": "timestamp",
          "type": "uint256"
        }
      ],
      "name": "DocumentReviewed",
      "type": "event"
    },
    {
      "anonymous": false,
      "inputs": [
        {
          "indexed": false,
          "internalType": "string",
          "name": "applicationId",
          "type": "string"
        },
        {
          "indexed": false,
          "internalType": "string",
          "name": "documentType",
          "type": "string"
        },
        {
          "indexed": false,
          "internalType": "string",
          "name": "documentHash",
          "type": "string"
        },
        {
          "indexed": false,
          "internalType": "uint256",
          "name": "timestamp",
          "type": "uint256"
        }
      ],
      "name": "DocumentUploaded",
      "type": "event"
    },
    {
      "anonymous": false,
      "inputs": [
        {
          "indexed": false,
          "internalType": "string",
          "name": "applicationId",
          "type": "string"
        },
        {
          "indexed": false,
          "internalType": "address",
          "name": "actor",
          "type": "address"
        },
        {
          "indexed": false,
          "internalType": "string",
          "name": "action",
          "type": "string"
        },
        {
          "indexed": false,
          "internalType": "uint256",
          "name": "timestamp",
          "type": "uint256"
        }
      ],
      "name": "LogRecorded",
      "type": "event"
    },
    {
      "anonymous": false,
      "inputs": [
        {
          "indexed": false,
          "internalType": "string",
          "name": "applicationId",
          "type": "string"
        },
        {
          "indexed": false,
          "internalType": "string",
          "name": "dataHash",
          "type": "string"
        },
        {
          "indexed": false,
          "internalType": "uint256",
          "name": "timestamp",
          "type": "uint256"
        }
      ],
      "name": "StudentRegistered",
      "type": "event"
    },
    {
      "anonymous": false,
      "inputs": [
        {
          "indexed": false,
          "internalType": "string",
          "name": "userId",
          "type": "string"
        },
        {
          "indexed": false,
          "internalType": "string",
          "name": "role",
          "type": "string"
        },
        {
          "indexed": false,
          "internalType": "string",
          "name": "dataHash",
          "type": "string"
        },
        {
          "indexed": false,
          "internalType": "uint256",
          "name": "timestamp",
          "type": "uint256"
        }
      ],
      "name": "UserRegistered",
      "type": "event"
    },
    {
      "inputs": [
        {
          "internalType": "string",
          "name": "applicationId",
          "type": "string"
        },
        {
          "internalType": "string",
          "name": "documentType",
          "type": "string"
        },
        {
          "internalType": "string",
          "name": "documentHash",
          "type": "string"
        }
      ],
      "name": "addDocument",
      "outputs": [],
      "stateMutability": "nonpayable",
      "type": "function"
    },
    {
      "inputs": [],
      "name": "admin",
      "outputs": [
        {
          "internalType": "address",
          "name": "",
          "type": "address"
        }
      ],
      "stateMutability": "view",
      "type": "function"
    },
    {
      "inputs": [
        {
          "internalType": "string",
          "name": "",
          "type": "string"
        }
      ],
      "name": "applications",
      "outputs": [
        {
          "internalType": "bool",
          "name": "exists",
          "type": "bool"
        },
        {
          "internalType": "string",
          "name": "status",
          "type": "string"
        },
        {
          "internalType": "uint256",
          "name": "submissionTime",
          "type": "uint256"
        },
        {
          "internalType": "uint256",
          "name": "deadlineTimestamp",
          "type": "uint256"
        }
      ],
      "stateMutability": "view",
      "type": "function"
    },
    {
      "inputs": [
        {
          "internalType": "string",
          "name": "",
          "type": "string"
        },
        {
          "internalType": "uint256",
          "name": "",
          "type": "uint256"
        }
      ],
      "name": "auditLogs",
      "outputs": [
        {
          "internalType": "address",
          "name": "actor",
          "type": "address"
        },
        {
          "internalType": "string",
          "name": "action",
          "type": "string"
        },
        {
          "internalType": "string",
          "name": "details",
          "type": "string"
        },
        {
          "internalType": "uint256",
          "name": "timestamp",
          "type": "uint256"
        }
      ],
      "stateMutability": "view",
      "type": "function"
    },
    {
      "inputs": [
        {
          "internalType": "string",
          "name": "",
          "type": "string"
        },
        {
          "internalType": "string",
          "name": "",
          "type": "string"
        }
      ],
      "name": "documents",
      "outputs": [
        {
          "internalType": "bool",
          "name": "exists",
          "type": "bool"
        },
        {
          "internalType": "string",
          "name": "documentHash",
          "type": "string"
        },
        {
          "internalType": "string",
          "name": "documentType",
          "type": "string"
        },
        {
          "internalType": "string",
          "name": "status",
          "type": "string"
        },
        {
          "internalType": "address",
          "name": "reviewedBy",
          "type": "address"
        },
        {
          "internalType": "uint256",
          "name": "uploadTime",
          "type": "uint256"
        },
        {
          "internalType": "uint256",
          "name": "reviewTime",
          "type": "uint256"
        },
        {
          "internalType": "string",
          "name": "rejectionReason",
          "type": "string"
        }
      ],
      "stateMutability": "view",
      "type": "function"
    },
    {
      "inputs": [
        {
          "internalType": "string",
          "name": "applicationId",
          "type": "string"
        }
      ],
      "name": "isWithinDeadline",
      "outputs": [
        {
          "internalType": "bool",
          "name": "",
          "type": "bool"
        }
      ],
      "stateMutability": "view",
      "type": "function"
    },
    {
      "inputs": [
        {
          "internalType": "string",
          "name": "applicationId",
          "type": "string"
        },
        {
          "internalType": "string",
          "name": "action",
          "type": "string"
        },
        {
          "internalType": "string",
          "name": "details",
          "type": "string"
        }
      ],
      "name": "recordAuditLog",
      "outputs": [],
      "stateMutability": "nonpayable",
      "type": "function"
    },
    {
      "inputs": [
        {
          "internalType": "string",
          "name": "applicationId",
          "type": "string"
        },
        {
          "internalType": "string",
          "name": "dataHash",
          "type": "string"
        }
      ],
      "name": "registerStudent",
      "outputs": [],
      "stateMutability": "nonpayable",
      "type": "function"
    },
    {
      "inputs": [
        {
          "internalType": "string",
          "name": "userId",
          "type": "string"
        },
        {
          "internalType": "string",
          "name": "role",
          "type": "string"
        },
        {
          "internalType": "string",
          "name": "dataHash",
          "type": "string"
        }
      ],
      "name": "registerUser",
      "outputs": [],
      "stateMutability": "nonpayable",
      "type": "function"
    },
    {
      "inputs": [
        {
          "internalType": "string",
          "name": "applicationId",
          "type": "string"
        },
        {
          "internalType": "string",
          "name": "documentType",
          "type": "string"
        },
        {
          "internalType": "string",
          "name": "status",
          "type": "string"
        },
        {
          "internalType": "string",
          "name": "rejectionReason",
          "type": "string"
        }
      ],
      "name": "reviewDocument",
      "outputs": [],
      "stateMutability": "nonpayable",
      "type": "function"
    },
    {
      "inputs": [
        {
          "internalType": "string",
          "name": "applicationId",
          "type": "string"
        },
        {
          "internalType": "uint256",
          "name": "deadlineTimestamp",
          "type": "uint256"
        }
      ],
      "name": "setDeadline",
      "outputs": [],
      "stateMutability": "nonpayable",
      "type": "function"
    },
    {
      "inputs": [
        {
          "internalType": "string",
          "name": "",
          "type": "string"
        }
      ],
      "name": "students",
      "outputs": [
        {
          "internalType": "bool",
          "name": "exists",
          "type": "bool"
        },
        {
          "internalType": "bool",
          "name": "verified",
          "type": "bool"
        },
        {
          "internalType": "string",
          "name": "dataHash",
          "type": "string"
        },
        {
          "internalType": "uint256",
          "name": "registrationTime",
          "type": "uint256"
        }
      ],
      "stateMutability": "view",
      "type": "function"
    },
    {
      "inputs": [
        {
          "internalType": "string",
          "name": "applicationId",
          "type": "string"
        },
        {
          "internalType": "string",
          "name": "status",
          "type": "string"
        }
      ],
      "name": "updateApplicationStatus",
      "outputs": [],
      "stateMutability": "nonpayable",
      "type": "function"
    },
    {
      "inputs": [
        {
          "internalType": "string",
          "name": "",
          "type": "string"
        }
      ],
      "name": "users",
      "outputs": [
        {
          "internalType": "bool",
          "name": "exists",
          "type": "bool"
        },
        {
          "internalType": "bool",
          "name": "verified",
          "type": "bool"
        },
        {
          "internalType": "string",
          "name": "dataHash",
          "type": "string"
        },
        {
          "internalType": "uint256",
          "name": "registrationTime",
          "type": "uint256"
        },
        {
          "internalType": "string",
          "name": "role",
          "type": "string"
        }
      ],
      "stateMutability": "view",
      "type": "function"
    },
    {
      "inputs": [
        {
          "internalType": "string",
          "name": "applicationId",
          "type": "string"
        }
      ],
      "name": "verifyStudent",
      "outputs": [],
      "stateMutability": "nonpayable",
      "type": "function"
    },
    {
      "inputs": [
        {
          "internalType": "string",
          "name": "userId",
          "type": "string"
        }
      ],
      "name": "verifyUser",
      "outputs": [],
      "stateMutability": "nonpayable",
      "type": "function"
    }
  ],
  "bytecode": "0x608060405234801561001057600080fd5b50336000806101000a81548173ffffffffffffffffffffffffffffffffffffffff021916908373ffffffffffffffffffffffffffffffffffffffff160217905550613ee7806100606000396000f3fe608060405234801561001057600080fd5b50600436106101005760003560e01c80639eaa943211610097578063d637dcfa11610066578063d637dcfa146102cd578063e600c817146102e9578063f5c6dec114610305578063f851a4401461033557610100565b80639eaa94321461022b578063afcd23f214610247578063c7ef6bfb14610263578063cda78de81461029657610100565b806336a8915b116100d357806336a8915b146101a3578063689e1c03146101bf57806387d8a84e146101f35780638db1655a1461020f57610100565b80630a1b776c146101055780630f65d1a614610121578063185f48821461013d57806324d8b90f14610170575b600080fd5b61011f600480360381019061011a919061276d565b610353565b005b61013b600480360381019061013691906127e5565b610771565b005b610157600480360381019061015291906128bc565b610b7f565b60405161016794939291906129b8565b60405180910390f35b61018a60048036038101906101859190612a30565b610c5a565b60405161019a9493929190612acd565b60405180910390f35b6101bd60048036038101906101b89190612b20565b610ded565b005b6101d960048036038101906101d491906128bc565b611187565b6040516101ea959493929190612bc7565b60405180910390f35b61020d600480360381019061020891906128bc565b6112fd565b005b6102296004803603810190610224919061276d565b611589565b005b61024560048036038101906102409190612b20565b611753565b005b610261600480360381019061025c9190612a30565b611764565b005b61027d600480360381019061027891906128bc565b61196d565b60405161028d9493929190612c28565b60405180910390f35b6102b060048036038101906102ab919061276d565b611a55565b6040516102c4989796959493929190612c74565b60405180910390f35b6102e760048036038101906102e29190612b20565b611d23565b005b61030360048036038101906102fe91906128bc565b611f86565b005b61031f600480360381019061031a91906128bc565b61228e565b60405161032c9190612d0e565b60405180910390f35b61033d612343565b60405161034a9190612d29565b60405180910390f35b60008054906101000a900473ffffffffffffffffffffffffffffffffffffffff1673ffffffffffffffffffffffffffffffffffffffff163373ffffffffffffffffffffffffffffffffffffffff16146103e1576040517f08c379a00000000000000000000000000000000000000000000000000000000081526004016103d890612db6565b60405180910390fd5b6001826040516103f19190612e12565b908152602001604051809103902060000160009054906101000a900460ff1615610450576040517f08c379a000000000000000000000000000000000000000000000000000000000815260040161044790612e75565b60405180910390fd5b6040518060800160405280600115158152602001600015158152602001828152602001428152506001836040516104879190612e12565b908152602001604051809103902060008201518160000160006101000a81548160ff02191690831515021790555060208201518160000160016101000a81548160ff02191690831515021790555060408201518160010190816104ea91906130a1565b50606082015181600201559050506040518060a001604052806001151581526020016000151581526020018281526020014281526020016040518060400160405280600781526020017f73747564656e740000000000000000000000000000000000000000000000000081525081525060028360405161056a9190612e12565b908152602001604051809103902060008201518160000160006101000a81548160ff02191690831515021790555060208201518160000160016101000a81548160ff02191690831515021790555060408201518160010190816105cd91906130a1565b506060820151816002015560808201518160030190816105ed91906130a1565b5090505060006004836040516106039190612e12565b9081526020016040518091039020905060018160000160006101000a81548160ff0219169083151502179055506040518060400160405280600981526020017f7375626d6974746564000000000000000000000000000000000000000000000081525081600101908161067691906130a1565b504281600201819055506106f683336040518060400160405280601281526020017f53545544454e545f5245474953544552454400000000000000000000000000008152506040518060400160405280601481526020017f53747564656e7420726567697374726174696f6e000000000000000000000000815250612367565b7f96336a19de11b134d0c78d80f475646ca6f1f336a950b8bdd27f5534920659a883834260405161072993929190613173565b60405180910390a17f1c66755634ab907c3bd19a48c068cecbd8c6bd23426e649d6482ea5e54e8e00083834260405161076493929190613204565b60405180910390a1505050565b60008054906101000a900473ffffffffffffffffffffffffffffffffffffffff1673ffffffffffffffffffffffffffffffffffffffff163373ffffffffffffffffffffffffffffffffffffffff16146107ff576040517f08c379a00000000000000000000000000000000000000000000000000000000081526004016107f6906132ce565b60405180910390fd5b60018460405161080f9190612e12565b908152602001604051809103902060000160009054906101000a900460ff1661086d576040517f08c379a00000000000000000000000000000000000000000000000000000000081526004016108649061333a565b60405180910390fd5b60038460405161087d9190612e12565b9081526020016040518091039020836040516108999190612e12565b908152602001604051809103902060000160009054906101000a900460ff166108f7576040517f08c379a00000000000000000000000000000000000000000000000000000000081526004016108ee906133a6565b60405180910390fd5b60405160200161090690613412565b604051602081830303815290604052805190602001208260405160200161092d9190612e12565b604051602081830303815290604052805190602001201480610998575060405160200161095990613473565b60405160208183030381529060405280519060200120826040516020016109809190612e12565b60405160208183030381529060405280519060200120145b6109d7576040517f08c379a00000000000000000000000000000000000000000000000000000000081526004016109ce906134fa565b60405180910390fd5b60006003856040516109e99190612e12565b908152602001604051809103902084604051610a059190612e12565b9081526020016040518091039020905082816003019081610a2691906130a1565b50338160040160006101000a81548173ffffffffffffffffffffffffffffffffffffffff021916908373ffffffffffffffffffffffffffffffffffffffff160217905550428160060181905550604051602001610a8290613473565b6040516020818303038152906040528051906020012083604051602001610aa99190612e12565b6040516020818303038152906040528051906020012003610ad75781816007019081610ad591906130a1565b505b610b3985336040518060400160405280601181526020017f444f43554d454e545f52455649455745440000000000000000000000000000008152508787604051602001610b259291906135b2565b604051602081830303815290604052612367565b7fabfd72f9ddbced01ce75ce5481133c3fd05f99c5b7c38f15205e18c9d5e5a4478585853342604051610b709594939291906135ec565b60405180910390a15050505050565b6004818051602081018201805184825260208301602085012081835280955050505050506000915090508060000160009054906101000a900460ff1690806001018054610bcb90612ec4565b80601f0160208091040260200160405190810160405280929190818152602001828054610bf790612ec4565b8015610c445780601f10610c1957610100808354040283529160200191610c44565b820191906000526020600020905b815481529060010190602001808311610c2757829003601f168201915b5050505050908060020154908060050154905084565b6005828051602081018201805184825260208301602085012081835280955050505050508181548110610c8c57600080fd5b9060005260206000209060040201600091509150508060000160009054906101000a900473ffffffffffffffffffffffffffffffffffffffff1690806001018054610cd690612ec4565b80601f0160208091040260200160405190810160405280929190818152602001828054610d0290612ec4565b8015610d4f5780601f10610d2457610100808354040283529160200191610d4f565b820191906000526020600020905b815481529060010190602001808311610d3257829003601f168201915b505050505090806002018054610d6490612ec4565b80601f0160208091040260200160405190810160405280929190818152602001828054610d9090612ec4565b8015610ddd5780601f10610db257610100808354040283529160200191610ddd565b820191906000526020600020905b815481529060010190602001808311610dc057829003601f168201915b5050505050908060030154905084565b600183604051610dfd9190612e12565b908152602001604051809103902060000160009054906101000a900460ff16610e5b576040517f08c379a0000000000000000000000000000000000000000000000000000000008152600401610e529061333a565b60405180910390fd5b600383604051610e6b9190612e12565b908152602001604051809103902082604051610e879190612e12565b908152602001604051809103902060000160009054906101000a900460ff1615610ee6576040517f08c379a0000000000000000000000000000000000000000000000000000000008152600401610edd906136a0565b60405180910390fd5b6040518061010001604052806001151581526020018281526020018381526020016040518060400160405280600781526020017f70656e64696e67000000000000000000000000000000000000000000000000008152508152602001600073ffffffffffffffffffffffffffffffffffffffff1681526020014281526020016000815260200160405180602001604052806000815250815250600384604051610f8f9190612e12565b908152602001604051809103902083604051610fab9190612e12565b908152602001604051809103902060008201518160000160006101000a81548160ff0219169083151502179055506020820151816001019081610fee91906130a1565b50604082015181600201908161100491906130a1565b50606082015181600301908161101a91906130a1565b5060808201518160040160006101000a81548173ffffffffffffffffffffffffffffffffffffffff021916908373ffffffffffffffffffffffffffffffffffffffff16021790555060a0820151816005015560c0820151816006015560e082015181600701908161108b91906130a1565b5090505060016004846040516110a19190612e12565b9081526020016040518091039020600401836040516110c09190612e12565b908152602001604051809103902060006101000a81548160ff02191690831515021790555061114583336040518060400160405280601181526020017f444f43554d454e545f55504c4f4144454400000000000000000000000000000081525085604051602001611131919061370c565b604051602081830303815290604052612367565b7fa8de9c4c8787288b3934a57aca511a6d17074f9ab3f4343860844302e346f5f28383834260405161117a949392919061372e565b60405180910390a1505050565b6002818051602081018201805184825260208301602085012081835280955050505050506000915090508060000160009054906101000a900460ff16908060000160019054906101000a900460ff16908060010180546111e690612ec4565b80601f016020809104026020016040519081016040528092919081815260200182805461121290612ec4565b801561125f5780601f106112345761010080835404028352916020019161125f565b820191906000526020600020905b81548152906001019060200180831161124257829003601f168201915b50505050509080600201549080600301805461127a90612ec4565b80601f01602080910402602001604051908101604052809291908181526020018280546112a690612ec4565b80156112f35780601f106112c8576101008083540402835291602001916112f3565b820191906000526020600020905b8154815290600101906020018083116112d657829003601f168201915b5050505050905085565b60008054906101000a900473ffffffffffffffffffffffffffffffffffffffff1673ffffffffffffffffffffffffffffffffffffffff163373ffffffffffffffffffffffffffffffffffffffff161461138b576040517f08c379a0000000000000000000000000000000000000000000000000000000008152600401611382906132ce565b60405180910390fd5b60018160405161139b9190612e12565b908152602001604051809103902060000160009054906101000a900460ff166113f9576040517f08c379a00000000000000000000000000000000000000000000000000000000081526004016113f09061333a565b60405180910390fd5b6001816040516114099190612e12565b908152602001604051809103902060000160019054906101000a900460ff1615611468576040517f08c379a000000000000000000000000000000000000000000000000000000000815260040161145f906137d4565b60405180910390fd5b600180826040516114799190612e12565b908152602001604051809103902060000160016101000a81548160ff0219169083151502179055506002816040516114b19190612e12565b908152602001604051809103902060000160009054906101000a900460ff16156115105760016002826040516114e79190612e12565b908152602001604051809103902060000160016101000a81548160ff0219169083151502179055505b61158681336040518060400160405280601081526020017f53545544454e545f5645524946494544000000000000000000000000000000008152506040518060400160405280601481526020017f53747564656e7420766572696669636174696f6e000000000000000000000000815250612367565b50565b60008054906101000a900473ffffffffffffffffffffffffffffffffffffffff1673ffffffffffffffffffffffffffffffffffffffff163373ffffffffffffffffffffffffffffffffffffffff1614611617576040517f08c379a000000000000000000000000000000000000000000000000000000000815260040161160e906132ce565b60405180910390fd5b6004826040516116279190612e12565b908152602001604051809103902060000160009054906101000a900460ff16611685576040517f08c379a000000000000000000000000000000000000000000000000000000000815260040161167c90613840565b60405180910390fd5b806004836040516116969190612e12565b908152602001604051809103902060010190816116b391906130a1565b5061171482336040518060400160405280601a81526020017f4150504c49434154494f4e5f5354415455535f555044415445440000000000008152508460405160200161170091906138ac565b604051602081830303815290604052612367565b7f2f31a519505e6ea83ea92d4e2be8152636a26156602859f0463da6ba9c29cae082824260405161174793929190613173565b60405180910390a15050565b61175f83338484612367565b505050565b60008054906101000a900473ffffffffffffffffffffffffffffffffffffffff1673ffffffffffffffffffffffffffffffffffffffff163373ffffffffffffffffffffffffffffffffffffffff16146117f2576040517f08c379a00000000000000000000000000000000000000000000000000000000081526004016117e990612db6565b60405180910390fd5b6004826040516118029190612e12565b908152602001604051809103902060000160009054906101000a900460ff16611860576040517f08c379a000000000000000000000000000000000000000000000000000000000815260040161185790613840565b60405180910390fd5b4281116118a2576040517f08c379a00000000000000000000000000000000000000000000000000000000081526004016118999061391a565b60405180910390fd5b806004836040516118b39190612e12565b90815260200160405180910390206005018190555061193082336040518060400160405280600c81526020017f444541444c494e455f534554000000000000000000000000000000000000000081525061190c856124ad565b60405160200161191c9190613986565b604051602081830303815290604052612367565b7f052570264eb8a0348e0e4a1b1bb79b2604498d7014527901e93344a3cb09d55582826040516119619291906139a8565b60405180910390a15050565b6001818051602081018201805184825260208301602085012081835280955050505050506000915090508060000160009054906101000a900460ff16908060000160019054906101000a900460ff16908060010180546119cc90612ec4565b80601f01602080910402602001604051908101604052809291908181526020018280546119f890612ec4565b8015611a455780601f10611a1a57610100808354040283529160200191611a45565b820191906000526020600020905b815481529060010190602001808311611a2857829003601f168201915b5050505050908060020154905084565b60038280516020810182018051848252602083016020850120818352809550505050505081805160208101820180518482526020830160208501208183528095505050505050600091509150508060000160009054906101000a900460ff1690806001018054611ac490612ec4565b80601f0160208091040260200160405190810160405280929190818152602001828054611af090612ec4565b8015611b3d5780601f10611b1257610100808354040283529160200191611b3d565b820191906000526020600020905b815481529060010190602001808311611b2057829003601f168201915b505050505090806002018054611b5290612ec4565b80601f0160208091040260200160405190810160405280929190818152602001828054611b7e90612ec4565b8015611bcb5780601f10611ba057610100808354040283529160200191611bcb565b820191906000526020600020905b815481529060010190602001808311611bae57829003601f168201915b505050505090806003018054611be090612ec4565b80601f0160208091040260200160405190810160405280929190818152602001828054611c0c90612ec4565b8015611c595780601f10611c2e57610100808354040283529160200191611c59565b820191906000526020600020905b815481529060010190602001808311611c3c57829003601f168201915b5050505050908060040160009054906101000a900473ffffffffffffffffffffffffffffffffffffffff1690806005015490806006015490806007018054611ca090612ec4565b80601f0160208091040260200160405190810160405280929190818152602001828054611ccc90612ec4565b8015611d195780601f10611cee57610100808354040283529160200191611d19565b820191906000526020600020905b815481529060010190602001808311611cfc57829003601f168201915b5050505050905088565b60008054906101000a900473ffffffffffffffffffffffffffffffffffffffff1673ffffffffffffffffffffffffffffffffffffffff163373ffffffffffffffffffffffffffffffffffffffff1614611db1576040517f08c379a0000000000000000000000000000000000000000000000000000000008152600401611da890612db6565b60405180910390fd5b600283604051611dc19190612e12565b908152602001604051809103902060000160009054906101000a900460ff1615611e20576040517f08c379a0000000000000000000000000000000000000000000000000000000008152600401611e1790613a24565b60405180910390fd5b6040518060a0016040528060011515815260200160001515815260200182815260200142815260200183815250600284604051611e5d9190612e12565b908152602001604051809103902060008201518160000160006101000a81548160ff02191690831515021790555060208201518160000160016101000a81548160ff0219169083151502179055506040820151816001019081611ec091906130a1565b50606082015181600201556080820151816003019081611ee091906130a1565b50905050611f4483336040518060400160405280600f81526020017f555345525f52454749535445524544000000000000000000000000000000000081525085604051602001611f309190613a90565b604051602081830303815290604052612367565b7f1c66755634ab907c3bd19a48c068cecbd8c6bd23426e649d6482ea5e54e8e00083838342604051611f79949392919061372e565b60405180910390a1505050565b60008054906101000a900473ffffffffffffffffffffffffffffffffffffffff1673ffffffffffffffffffffffffffffffffffffffff163373ffffffffffffffffffffffffffffffffffffffff1614612014576040517f08c379a000000000000000000000000000000000000000000000000000000000815260040161200b90612db6565b60405180910390fd5b6002816040516120249190612e12565b908152602001604051809103902060000160009054906101000a900460ff16612082576040517f08c379a000000000000000000000000000000000000000000000000000000000815260040161207990613afe565b60405180910390fd5b6002816040516120929190612e12565b908152602001604051809103902060000160019054906101000a900460ff16156120f1576040517f08c379a00000000000000000000000000000000000000000000000000000000081526004016120e890613b6a565b60405180910390fd5b60016002826040516121039190612e12565b908152602001604051809103902060000160016101000a81548160ff02191690831515021790555060405160200161213a90613bad565b604051602081830303815290604052805190602001206002826040516121609190612e12565b90815260200160405180910390206003016040516020016121819190613c45565b604051602081830303815290604052805190602001200361220b576001816040516121ac9190612e12565b908152602001604051809103902060000160009054906101000a900460ff161561220a57600180826040516121e19190612e12565b908152602001604051809103902060000160016101000a81548160ff0219169083151502179055505b5b61228b81336040518060400160405280600d81526020017f555345525f5645524946494544000000000000000000000000000000000000008152506002856040516122569190612e12565b90815260200160405180910390206003016040516020016122779190613ca8565b604051602081830303815290604052612367565b50565b60006004826040516122a09190612e12565b908152602001604051809103902060000160009054906101000a900460ff166122fe576040517f08c379a00000000000000000000000000000000000000000000000000000000081526004016122f590613840565b60405180910390fd5b60006004836040516123109190612e12565b90815260200160405180910390206005015490506000810361233657600191505061233e565b804211159150505b919050565b60008054906101000a900473ffffffffffffffffffffffffffffffffffffffff1681565b600060405180608001604052808573ffffffffffffffffffffffffffffffffffffffff1681526020018481526020018381526020014281525090506005856040516123b29190612e12565b908152602001604051809103902081908060018154018082558091505060019003906000526020600020906004020160009091909190915060008201518160000160006101000a81548173ffffffffffffffffffffffffffffffffffffffff021916908373ffffffffffffffffffffffffffffffffffffffff160217905550602082015181600101908161244691906130a1565b50604082015181600201908161245c91906130a1565b506060820151816003015550507f894124ab7c74b0e9a122d53df4981f2179d417659c9f76ff9acda517ac4c42b98585854260405161249e9493929190613cca565b60405180910390a15050505050565b6060600082036124f4576040518060400160405280600181526020017f3000000000000000000000000000000000000000000000000000000000000000815250905061260e565b600082905060005b6000821461252657808061250f90613d4c565b915050600a8261251f9190613dc3565b91506124fc565b60008167ffffffffffffffff81111561254257612541612642565b5b6040519080825280601f01601f1916602001820160405280156125745781602001600182028036833780820191505090505b50905060008290508593505b6000841461260657600a846125959190613df4565b60306125a19190613e25565b60f81b82826125af90613e59565b925082815181106125c3576125c2613e82565b5b60200101907effffffffffffffffffffffffffffffffffffffffffffffffffffffffffffff1916908160001a905350600a846125ff9190613dc3565b9350612580565b819450505050505b919050565b6000604051905090565b600080fd5b600080fd5b600080fd5b600080fd5b6000601f19601f8301169050919050565b7f4e487b7100000000000000000000000000000000000000000000000000000000600052604160045260246000fd5b61267a82612631565b810181811067ffffffffffffffff8211171561269957612698612642565b5b80604052505050565b60006126ac612613565b90506126b88282612671565b919050565b600067ffffffffffffffff8211156126d8576126d7612642565b5b6126e182612631565b9050602081019050919050565b82818337600083830152505050565b600061271061270b846126bd565b6126a2565b90508281526020810184848401111561272c5761272b61262c565b5b6127378482856126ee565b509392505050565b600082601f83011261275457612753612627565b5b81356127648482602086016126fd565b91505092915050565b600080604083850312156127845761278361261d565b5b600083013567ffffffffffffffff8111156127a2576127a1612622565b5b6127ae8582860161273f565b925050602083013567ffffffffffffffff8111156127cf576127ce612622565b5b6127db8582860161273f565b9150509250929050565b600080600080608085870312156127ff576127fe61261d565b5b600085013567ffffffffffffffff81111561281d5761281c612622565b5b6128298782880161273f565b945050602085013567ffffffffffffffff81111561284a57612849612622565b5b6128568782880161273f565b935050604085013567ffffffffffffffff81111561287757612876612622565b5b6128838782880161273f565b925050606085013567ffffffffffffffff8111156128a4576128a3612622565b5b6128b08782880161273f565b91505092959194509250565b6000602082840312156128d2576128d161261d565b5b600082013567ffffffffffffffff8111156128f0576128ef612622565b5b6128fc8482850161273f565b91505092915050565b60008115159050919050565b61291a81612905565b82525050565b600081519050919050565b600082825260208201905092915050565b60005b8381101561295a57808201518184015260208101905061293f565b60008484015250505050565b600061297182612920565b61297b818561292b565b935061298b81856020860161293c565b61299481612631565b840191505092915050565b6000819050919050565b6129b28161299f565b82525050565b60006080820190506129cd6000830187612911565b81810360208301526129df8186612966565b90506129ee60408301856129a9565b6129fb60608301846129a9565b95945050505050565b612a0d8161299f565b8114612a1857600080fd5b50565b600081359050612a2a81612a04565b92915050565b60008060408385031215612a4757612a4661261d565b5b600083013567ffffffffffffffff811115612a6557612a64612622565b5b612a718582860161273f565b9250506020612a8285828601612a1b565b9150509250929050565b600073ffffffffffffffffffffffffffffffffffffffff82169050919050565b6000612ab782612a8c565b9050919050565b612ac781612aac565b82525050565b6000608082019050612ae26000830187612abe565b8181036020830152612af48186612966565b90508181036040830152612b088185612966565b9050612b1760608301846129a9565b95945050505050565b600080600060608486031215612b3957612b3861261d565b5b600084013567ffffffffffffffff811115612b5757612b56612622565b5b612b638682870161273f565b935050602084013567ffffffffffffffff811115612b8457612b83612622565b5b612b908682870161273f565b925050604084013567ffffffffffffffff811115612bb157612bb0612622565b5b612bbd8682870161273f565b9150509250925092565b600060a082019050612bdc6000830188612911565b612be96020830187612911565b8181036040830152612bfb8186612966565b9050612c0a60608301856129a9565b8181036080830152612c1c8184612966565b90509695505050505050565b6000608082019050612c3d6000830187612911565b612c4a6020830186612911565b8181036040830152612c5c8185612966565b9050612c6b60608301846129a9565b95945050505050565b600061010082019050612c8a600083018b612911565b8181036020830152612c9c818a612966565b90508181036040830152612cb08189612966565b90508181036060830152612cc48188612966565b9050612cd36080830187612abe565b612ce060a08301866129a9565b612ced60c08301856129a9565b81810360e0830152612cff8184612966565b90509998505050505050505050565b6000602082019050612d236000830184612911565b92915050565b6000602082019050612d3e6000830184612abe565b92915050565b7f4f6e6c792061646d696e2063616e2063616c6c20746869732066756e6374696f60008201527f6e00000000000000000000000000000000000000000000000000000000000000602082015250565b6000612da060218361292b565b9150612dab82612d44565b604082019050919050565b60006020820190508181036000830152612dcf81612d93565b9050919050565b600081905092915050565b6000612dec82612920565b612df68185612dd6565b9350612e0681856020860161293c565b80840191505092915050565b6000612e1e8284612de1565b915081905092915050565b7f53747564656e7420616c72656164792065786973747300000000000000000000600082015250565b6000612e5f60168361292b565b9150612e6a82612e29565b602082019050919050565b60006020820190508181036000830152612e8e81612e52565b9050919050565b7f4e487b7100000000000000000000000000000000000000000000000000000000600052602260045260246000fd5b60006002820490506001821680612edc57607f821691505b602082108103612eef57612eee612e95565b5b50919050565b60008190508160005260206000209050919050565b60006020601f8301049050919050565b600082821b905092915050565b600060088302612f577fffffffffffffffffffffffffffffffffffffffffffffffffffffffffffffffff82612f1a565b612f618683612f1a565b95508019841693508086168417925050509392505050565b6000819050919050565b6000612f9e612f99612f948461299f565b612f79565b61299f565b9050919050565b6000819050919050565b612fb883612f83565b612fcc612fc482612fa5565b848454612f27565b825550505050565b600090565b612fe1612fd4565b612fec818484612faf565b505050565b5b8181101561301057613005600082612fd9565b600181019050612ff2565b5050565b601f8211156130555761302681612ef5565b61302f84612f0a565b8101602085101561303e578190505b61305261304a85612f0a565b830182612ff1565b50505b505050565b600082821c905092915050565b60006130786000198460080261305a565b1980831691505092915050565b60006130918383613067565b9150826002028217905092915050565b6130aa82612920565b67ffffffffffffffff8111156130c3576130c2612642565b5b6130cd8254612ec4565b6130d8828285613014565b600060209050601f83116001811461310b57600084156130f9578287015190505b6131038582613085565b86555061316b565b601f19841661311986612ef5565b60005b828110156131415784890151825560018201915060208501945060208101905061311c565b8683101561315e578489015161315a601f891682613067565b8355505b6001600288020188555050505b505050505050565b6000606082019050818103600083015261318d8186612966565b905081810360208301526131a18185612966565b90506131b060408301846129a9565b949350505050565b7f73747564656e7400000000000000000000000000000000000000000000000000600082015250565b60006131ee60078361292b565b91506131f9826131b8565b602082019050919050565b6000608082019050818103600083015261321e8186612966565b90508181036020830152613231816131e1565b905081810360408301526132458185612966565b905061325460608301846129a9565b949350505050565b7f4f6e6c792073746166662063616e2063616c6c20746869732066756e6374696f60008201527f6e00000000000000000000000000000000000000000000000000000000000000602082015250565b60006132b860218361292b565b91506132c38261325c565b604082019050919050565b600060208201905081810360008301526132e7816132ab565b9050919050565b7f53747564656e7420646f6573206e6f7420657869737400000000000000000000600082015250565b600061332460168361292b565b915061332f826132ee565b602082019050919050565b6000602082019050818103600083015261335381613317565b9050919050565b7f446f63756d656e7420646f6573206e6f74206578697374000000000000000000600082015250565b600061339060178361292b565b915061339b8261335a565b602082019050919050565b600060208201905081810360008301526133bf81613383565b9050919050565b7f617070726f766564000000000000000000000000000000000000000000000000600082015250565b60006133fc600883612dd6565b9150613407826133c6565b600882019050919050565b600061341d826133ef565b9150819050919050565b7f72656a6563746564000000000000000000000000000000000000000000000000600082015250565b600061345d600883612dd6565b915061346882613427565b600882019050919050565b600061347e82613450565b9150819050919050565b7f537461747573206d7573742062652027617070726f76656427206f722027726560008201527f6a65637465642700000000000000000000000000000000000000000000000000602082015250565b60006134e460278361292b565b91506134ef82613488565b604082019050919050565b60006020820190508181036000830152613513816134d7565b9050919050565b7f446f63756d656e742072657669657765643a2000000000000000000000000000600082015250565b6000613550601383612dd6565b915061355b8261351a565b601382019050919050565b7f202d200000000000000000000000000000000000000000000000000000000000600082015250565b600061359c600383612dd6565b91506135a782613566565b600382019050919050565b60006135bd82613543565b91506135c98285612de1565b91506135d48261358f565b91506135e08284612de1565b91508190509392505050565b600060a08201905081810360008301526136068188612966565b9050818103602083015261361a8187612966565b9050818103604083015261362e8186612966565b905061363d6060830185612abe565b61364a60808301846129a9565b9695505050505050565b7f446f63756d656e7420616c726561647920657869737473000000000000000000600082015250565b600061368a60178361292b565b915061369582613654565b602082019050919050565b600060208201905081810360008301526136b98161367d565b9050919050565b7f446f63756d656e742075706c6f616465643a2000000000000000000000000000600082015250565b60006136f6601383612dd6565b9150613701826136c0565b601382019050919050565b6000613717826136e9565b91506137238284612de1565b915081905092915050565b600060808201905081810360008301526137488187612966565b9050818103602083015261375c8186612966565b905081810360408301526137708185612966565b905061377f60608301846129a9565b95945050505050565b7f53747564656e7420616c72656164792076657269666965640000000000000000600082015250565b60006137be60188361292b565b91506137c982613788565b602082019050919050565b600060208201905081810360008301526137ed816137b1565b9050919050565b7f4170706c69636174696f6e20646f6573206e6f74206578697374000000000000600082015250565b600061382a601a8361292b565b9150613835826137f4565b602082019050919050565b600060208201905081810360008301526138598161381d565b9050919050565b7f4170706c69636174696f6e20737461747573207570646174656420746f3a2000600082015250565b6000613896601f83612dd6565b91506138a182613860565b601f82019050919050565b60006138b782613889565b91506138c38284612de1565b915081905092915050565b7f446561646c696e65206d75737420626520696e20746865206675747572650000600082015250565b6000613904601e8361292b565b915061390f826138ce565b602082019050919050565b60006020820190508181036000830152613933816138f7565b9050919050565b7f446561646c696e652073657420666f723a200000000000000000000000000000600082015250565b6000613970601283612dd6565b915061397b8261393a565b601282019050919050565b600061399182613963565b915061399d8284612de1565b915081905092915050565b600060408201905081810360008301526139c28185612966565b90506139d160208301846129a9565b9392505050565b7f5573657220616c72656164792065786973747300000000000000000000000000600082015250565b6000613a0e60138361292b565b9150613a19826139d8565b602082019050919050565b60006020820190508181036000830152613a3d81613a01565b9050919050565b7f20726567697374726174696f6e00000000000000000000000000000000000000600082015250565b6000613a7a600d83612dd6565b9150613a8582613a44565b600d82019050919050565b6000613a9c8284612de1565b9150613aa782613a6d565b915081905092915050565b7f5573657220646f6573206e6f7420657869737400000000000000000000000000600082015250565b6000613ae860138361292b565b9150613af382613ab2565b602082019050919050565b60006020820190508181036000830152613b1781613adb565b9050919050565b7f5573657220616c72656164792076657269666965640000000000000000000000600082015250565b6000613b5460158361292b565b9150613b5f82613b1e565b602082019050919050565b60006020820190508181036000830152613b8381613b47565b9050919050565b6000613b97600783612dd6565b9150613ba2826131b8565b600782019050919050565b6000613bb882613b8a565b9150819050919050565b60008154613bcf81612ec4565b613bd98186612dd6565b94506001821660008114613bf45760018114613c0957613c3c565b60ff1983168652811515820286019350613c3c565b613c1285612ef5565b60005b83811015613c3457815481890152600182019150602081019050613c15565b838801955050505b50505092915050565b6000613c518284613bc2565b915081905092915050565b7f20766572696669636174696f6e00000000000000000000000000000000000000600082015250565b6000613c92600d83612dd6565b9150613c9d82613c5c565b600d82019050919050565b6000613cb48284613bc2565b9150613cbf82613c85565b915081905092915050565b60006080820190508181036000830152613ce48187612966565b9050613cf36020830186612abe565b8181036040830152613d058185612966565b9050613d1460608301846129a9565b95945050505050565b7f4e487b7100000000000000000000000000000000000000000000000000000000600052601160045260246000fd5b6000613d578261299f565b91507fffffffffffffffffffffffffffffffffffffffffffffffffffffffffffffffff8203613d8957613d88613d1d565b5b600182019050919050565b7f4e487b7100000000000000000000000000000000000000000000000000000000600052601260045260246000fd5b6000613dce8261299f565b9150613dd98361299f565b925082613de957613de8613d94565b5b828204905092915050565b6000613dff8261299f565b9150613e0a8361299f565b925082613e1a57613e19613d94565b5b828206905092915050565b6000613e308261299f565b9150613e3b8361299f565b9250828201905080821115613e5357613e52613d1d565b5b92915050565b6000613e648261299f565b915060008203613e7757613e76613d1d565b5b600182039050919050565b7f4e487b7100000000000000000000000000000000000000000000000000000000600052603260045260246000fdfea2646970667358221220a56c72399b81260f0d57b77d9f14e1c2701d5af2ef17b7a75ec21184c3fc1bf264736f6c63430008110033",
  "linkReferences": {},
  "deployedLinkReferences": {}
}