{
  "_format": "hh-sol-artifact-1",
  "contractName": "EnrollmentSystem",
  "sourceName": "contracts/EnrollmentSystem.sol",
  "abi": [
    {
      "inputs": [],
      "stateMutability": "nonpayable",
      "type": "constructor"
    },
    {
      "anonymous": false,
      "inputs": [
        {
          "indexed": false,
          "internalType": "string",
          "name": "applicationId",
          "type": "string"
        },
        {
          "indexed": false,
          "internalType": "string",
          "name": "status",
          "type": "string"
        },
        {
          "indexed": false,
          "internalType": "uint256",
          "name": "timestamp",
          "type": "uint256"
        }
      ],
      "name": "ApplicationStatusChanged",
      "type": "event"
    },
    {
      "anonymous": false,
      "inputs": [
        {
          "indexed": false,
          "internalType": "string",
          "name": "applicationId",
          "type": "string"
        },
        {
          "indexed": false,
          "internalType": "string",
          "name": "status",
          "type": "string"
        },
        {
          "indexed": false,
          "internalType": "uint256",
          "name": "timestamp",
          "type": "uint256"
        }
      ],
      "name": "ClearanceStatusUpdated",
      "type": "event"
    },
    {
      "anonymous": false,
      "inputs": [
        {
          "indexed": false,
          "internalType": "string",
          "name": "applicationId",
          "type": "string"
        },
        {
          "indexed": false,
          "internalType": "uint256",
          "name": "deadlineTimestamp",
          "type": "uint256"
        }
      ],
      "name": "DeadlineSet",
      "type": "event"
    },
    {
      "anonymous": false,
      "inputs": [
        {
          "indexed": false,
          "internalType": "string",
          "name": "applicationId",
          "type": "string"
        },
        {
          "indexed": false,
          "internalType": "string",
          "name": "documentType",
          "type": "string"
        },
        {
          "indexed": false,
          "internalType": "string",
          "name": "status",
          "type": "string"
        },
        {
          "indexed": false,
          "internalType": "address",
          "name": "reviewer",
          "type": "address"
        },
        {
          "indexed": false,
          "internalType": "uint256",
          "name": "timestamp",
          "type": "uint256"
        }
      ],
      "name": "DocumentReviewed",
      "type": "event"
    },
    {
      "anonymous": false,
      "inputs": [
        {
          "indexed": false,
          "internalType": "string",
          "name": "applicationId",
          "type": "string"
        },
        {
          "indexed": false,
          "internalType": "string",
          "name": "documentType",
          "type": "string"
        },
        {
          "indexed": false,
          "internalType": "string",
          "name": "documentHash",
          "type": "string"
        },
        {
          "indexed": false,
          "internalType": "uint256",
          "name": "timestamp",
          "type": "uint256"
        }
      ],
      "name": "DocumentUploaded",
      "type": "event"
    },
    {
      "anonymous": false,
      "inputs": [
        {
          "indexed": false,
          "internalType": "string",
          "name": "applicationId",
          "type": "string"
        },
        {
          "indexed": false,
          "internalType": "address",
          "name": "actor",
          "type": "address"
        },
        {
          "indexed": false,
          "internalType": "string",
          "name": "action",
          "type": "string"
        },
        {
          "indexed": false,
          "internalType": "uint256",
          "name": "timestamp",
          "type": "uint256"
        }
      ],
      "name": "LogRecorded",
      "type": "event"
    },
    {
      "anonymous": false,
      "inputs": [
        {
          "indexed": false,
          "internalType": "string",
          "name": "applicationId",
          "type": "string"
        },
        {
          "indexed": false,
          "internalType": "string",
          "name": "dataHash",
          "type": "string"
        },
        {
          "indexed": false,
          "internalType": "uint256",
          "name": "timestamp",
          "type": "uint256"
        }
      ],
      "name": "StudentRegistered",
      "type": "event"
    },
    {
      "anonymous": false,
      "inputs": [
        {
          "indexed": false,
          "internalType": "string",
          "name": "userId",
          "type": "string"
        },
        {
          "indexed": false,
          "internalType": "string",
          "name": "role",
          "type": "string"
        },
        {
          "indexed": false,
          "internalType": "string",
          "name": "dataHash",
          "type": "string"
        },
        {
          "indexed": false,
          "internalType": "uint256",
          "name": "timestamp",
          "type": "uint256"
        }
      ],
      "name": "UserRegistered",
      "type": "event"
    },
    {
      "inputs": [
        {
          "internalType": "string",
          "name": "applicationId",
          "type": "string"
        },
        {
          "internalType": "string",
          "name": "documentType",
          "type": "string"
        },
        {
          "internalType": "string",
          "name": "documentHash",
          "type": "string"
        }
      ],
      "name": "addDocument",
      "outputs": [],
      "stateMutability": "nonpayable",
      "type": "function"
    },
    {
      "inputs": [],
      "name": "admin",
      "outputs": [
        {
          "internalType": "address",
          "name": "",
          "type": "address"
        }
      ],
      "stateMutability": "view",
      "type": "function"
    },
    {
      "inputs": [
        {
          "internalType": "string",
          "name": "",
          "type": "string"
        }
      ],
      "name": "applications",
      "outputs": [
        {
          "internalType": "bool",
          "name": "exists",
          "type": "bool"
        },
        {
          "internalType": "string",
          "name": "status",
          "type": "string"
        },
        {
          "internalType": "uint256",
          "name": "submissionTime",
          "type": "uint256"
        },
        {
          "internalType": "uint256",
          "name": "deadlineTimestamp",
          "type": "uint256"
        }
      ],
      "stateMutability": "view",
      "type": "function"
    },
    {
      "inputs": [
        {
          "internalType": "string",
          "name": "",
          "type": "string"
        },
        {
          "internalType": "uint256",
          "name": "",
          "type": "uint256"
        }
      ],
      "name": "auditLogs",
      "outputs": [
        {
          "internalType": "address",
          "name": "actor",
          "type": "address"
        },
        {
          "internalType": "string",
          "name": "action",
          "type": "string"
        },
        {
          "internalType": "string",
          "name": "details",
          "type": "string"
        },
        {
          "internalType": "uint256",
          "name": "timestamp",
          "type": "uint256"
        }
      ],
      "stateMutability": "view",
      "type": "function"
    },
    {
      "inputs": [
        {
          "internalType": "string",
          "name": "",
          "type": "string"
        }
      ],
      "name": "clearanceStatus",
      "outputs": [
        {
          "internalType": "string",
          "name": "status",
          "type": "string"
        },
        {
          "internalType": "string",
          "name": "detailsHash",
          "type": "string"
        },
        {
          "internalType": "uint256",
          "name": "timestamp",
          "type": "uint256"
        },
        {
          "internalType": "bool",
          "name": "verified",
          "type": "bool"
        }
      ],
      "stateMutability": "view",
      "type": "function"
    },
    {
      "inputs": [
        {
          "internalType": "string",
          "name": "",
          "type": "string"
        },
        {
          "internalType": "string",
          "name": "",
          "type": "string"
        }
      ],
      "name": "documents",
      "outputs": [
        {
          "internalType": "bool",
          "name": "exists",
          "type": "bool"
        },
        {
          "internalType": "string",
          "name": "documentHash",
          "type": "string"
        },
        {
          "internalType": "string",
          "name": "documentType",
          "type": "string"
        },
        {
          "internalType": "string",
          "name": "status",
          "type": "string"
        },
        {
          "internalType": "address",
          "name": "reviewedBy",
          "type": "address"
        },
        {
          "internalType": "uint256",
          "name": "uploadTime",
          "type": "uint256"
        },
        {
          "internalType": "uint256",
          "name": "reviewTime",
          "type": "uint256"
        },
        {
          "internalType": "string",
          "name": "rejectionReason",
          "type": "string"
        }
      ],
      "stateMutability": "view",
      "type": "function"
    },
    {
      "inputs": [
        {
          "internalType": "string",
          "name": "applicationId",
          "type": "string"
        }
      ],
      "name": "isWithinDeadline",
      "outputs": [
        {
          "internalType": "bool",
          "name": "",
          "type": "bool"
        }
      ],
      "stateMutability": "view",
      "type": "function"
    },
    {
      "inputs": [
        {
          "internalType": "string",
          "name": "applicationId",
          "type": "string"
        },
        {
          "internalType": "string",
          "name": "action",
          "type": "string"
        },
        {
          "internalType": "string",
          "name": "details",
          "type": "string"
        }
      ],
      "name": "recordAuditLog",
      "outputs": [],
      "stateMutability": "nonpayable",
      "type": "function"
    },
    {
      "inputs": [
        {
          "internalType": "string",
          "name": "applicationId",
          "type": "string"
        },
        {
          "internalType": "string",
          "name": "status",
          "type": "string"
        },
        {
          "internalType": "string",
          "name": "detailsHash",
          "type": "string"
        }
      ],
      "name": "recordClearanceStatus",
      "outputs": [],
      "stateMutability": "nonpayable",
      "type": "function"
    },
    {
      "inputs": [
        {
          "internalType": "string",
          "name": "applicationId",
          "type": "string"
        },
        {
          "internalType": "string",
          "name": "dataHash",
          "type": "string"
        }
      ],
      "name": "registerStudent",
      "outputs": [],
      "stateMutability": "nonpayable",
      "type": "function"
    },
    {
      "inputs": [
        {
          "internalType": "string",
          "name": "userId",
          "type": "string"
        },
        {
          "internalType": "string",
          "name": "role",
          "type": "string"
        },
        {
          "internalType": "string",
          "name": "dataHash",
          "type": "string"
        }
      ],
      "name": "registerUser",
      "outputs": [],
      "stateMutability": "nonpayable",
      "type": "function"
    },
    {
      "inputs": [
        {
          "internalType": "string",
          "name": "applicationId",
          "type": "string"
        },
        {
          "internalType": "string",
          "name": "documentType",
          "type": "string"
        },
        {
          "internalType": "string",
          "name": "status",
          "type": "string"
        },
        {
          "internalType": "string",
          "name": "rejectionReason",
          "type": "string"
        }
      ],
      "name": "reviewDocument",
      "outputs": [],
      "stateMutability": "nonpayable",
      "type": "function"
    },
    {
      "inputs": [
        {
          "internalType": "string",
          "name": "applicationId",
          "type": "string"
        },
        {
          "internalType": "uint256",
          "name": "deadlineTimestamp",
          "type": "uint256"
        }
      ],
      "name": "setDeadline",
      "outputs": [],
      "stateMutability": "nonpayable",
      "type": "function"
    },
    {
      "inputs": [
        {
          "internalType": "string",
          "name": "",
          "type": "string"
        }
      ],
      "name": "students",
      "outputs": [
        {
          "internalType": "bool",
          "name": "exists",
          "type": "bool"
        },
        {
          "internalType": "bool",
          "name": "verified",
          "type": "bool"
        },
        {
          "internalType": "string",
          "name": "dataHash",
          "type": "string"
        },
        {
          "internalType": "uint256",
          "name": "registrationTime",
          "type": "uint256"
        }
      ],
      "stateMutability": "view",
      "type": "function"
    },
    {
      "inputs": [
        {
          "internalType": "string",
          "name": "applicationId",
          "type": "string"
        },
        {
          "internalType": "string",
          "name": "status",
          "type": "string"
        }
      ],
      "name": "updateApplicationStatus",
      "outputs": [],
      "stateMutability": "nonpayable",
      "type": "function"
    },
    {
      "inputs": [
        {
          "internalType": "string",
          "name": "",
          "type": "string"
        }
      ],
      "name": "users",
      "outputs": [
        {
          "internalType": "bool",
          "name": "exists",
          "type": "bool"
        },
        {
          "internalType": "bool",
          "name": "verified",
          "type": "bool"
        },
        {
          "internalType": "string",
          "name": "dataHash",
          "type": "string"
        },
        {
          "internalType": "uint256",
          "name": "registrationTime",
          "type": "uint256"
        },
        {
          "internalType": "string",
          "name": "role",
          "type": "string"
        }
      ],
      "stateMutability": "view",
      "type": "function"
    },
    {
      "inputs": [
        {
          "internalType": "string",
          "name": "applicationId",
          "type": "string"
        }
      ],
      "name": "verifyStudent",
      "outputs": [],
      "stateMutability": "nonpayable",
      "type": "function"
    },
    {
      "inputs": [
        {
          "internalType": "string",
          "name": "userId",
          "type": "string"
        }
      ],
      "name": "verifyUser",
      "outputs": [],
      "stateMutability": "nonpayable",
      "type": "function"
    }
  ],
  "bytecode": "0x608060405234801561001057600080fd5b50336000806101000a81548173ffffffffffffffffffffffffffffffffffffffff021916908373ffffffffffffffffffffffffffffffffffffffff16021790555061431a806100606000396000f3fe608060405234801561001057600080fd5b50600436106101165760003560e01c80639eaa9432116100a2578063d637dcfa11610071578063d637dcfa146102ff578063df0a4dd51461031b578063e600c8171461034e578063f5c6dec11461036a578063f851a4401461039a57610116565b80639eaa94321461025d578063afcd23f214610279578063c7ef6bfb14610295578063cda78de8146102c857610116565b806324d8b90f116100e957806324d8b90f146101a257806336a8915b146101d5578063689e1c03146101f157806387d8a84e146102255780638db1655a1461024157610116565b806309be13241461011b5780630a1b776c146101375780630f65d1a614610153578063185f48821461016f575b600080fd5b61013560048036038101906101309190612b4d565b6103b8565b005b610151600480360381019061014c9190612bf4565b6105d0565b005b61016d60048036038101906101689190612c6c565b6109ee565b005b61018960048036038101906101849190612d43565b610dfc565b6040516101999493929190612e3f565b60405180910390f35b6101bc60048036038101906101b79190612eb7565b610ed7565b6040516101cc9493929190612f54565b60405180910390f35b6101ef60048036038101906101ea9190612b4d565b61106a565b005b61020b60048036038101906102069190612d43565b611404565b60405161021c959493929190612fa7565b60405180910390f35b61023f600480360381019061023a9190612d43565b61157a565b005b61025b60048036038101906102569190612bf4565b611806565b005b61027760048036038101906102729190612b4d565b6119d0565b005b610293600480360381019061028e9190612eb7565b6119e1565b005b6102af60048036038101906102aa9190612d43565b611bea565b6040516102bf9493929190613008565b60405180910390f35b6102e260048036038101906102dd9190612bf4565b611cd2565b6040516102f6989796959493929190613054565b60405180910390f35b61031960048036038101906103149190612b4d565b611fa0565b005b61033560048036038101906103309190612d43565b612203565b60405161034594939291906130ee565b60405180910390f35b61036860048036038101906103639190612d43565b612366565b005b610384600480360381019061037f9190612d43565b61266e565b6040516103919190613141565b60405180910390f35b6103a2612723565b6040516103af919061315c565b60405180910390f35b60008054906101000a900473ffffffffffffffffffffffffffffffffffffffff1673ffffffffffffffffffffffffffffffffffffffff163373ffffffffffffffffffffffffffffffffffffffff1614610446576040517f08c379a000000000000000000000000000000000000000000000000000000000815260040161043d906131e9565b60405180910390fd5b6001836040516104569190613245565b908152602001604051809103902060000160009054906101000a900460ff166104b4576040517f08c379a00000000000000000000000000000000000000000000000000000000081526004016104ab906132a8565b60405180910390fd5b6040518060800160405280838152602001828152602001428152602001600115158152506006846040516104e89190613245565b9081526020016040518091039020600082015181600001908161050b91906134d4565b50602082015181600101908161052191906134d4565b506040820151816002015560608201518160030160006101000a81548160ff02191690831515021790555090505061059083336040518060400160405280601881526020017f434c454152414e43455f5354415455535f55504441544544000000000000000081525085612747565b7f63075c172597301e24850b754573be132d75fe5ce31950502154cc645c5a84668383426040516105c3939291906135a6565b60405180910390a1505050565b60008054906101000a900473ffffffffffffffffffffffffffffffffffffffff1673ffffffffffffffffffffffffffffffffffffffff163373ffffffffffffffffffffffffffffffffffffffff161461065e576040517f08c379a0000000000000000000000000000000000000000000000000000000008152600401610655906131e9565b60405180910390fd5b60018260405161066e9190613245565b908152602001604051809103902060000160009054906101000a900460ff16156106cd576040517f08c379a00000000000000000000000000000000000000000000000000000000081526004016106c490613637565b60405180910390fd5b6040518060800160405280600115158152602001600015158152602001828152602001428152506001836040516107049190613245565b908152602001604051809103902060008201518160000160006101000a81548160ff02191690831515021790555060208201518160000160016101000a81548160ff021916908315150217905550604082015181600101908161076791906134d4565b50606082015181600201559050506040518060a001604052806001151581526020016000151581526020018281526020014281526020016040518060400160405280600781526020017f73747564656e74000000000000000000000000000000000000000000000000008152508152506002836040516107e79190613245565b908152602001604051809103902060008201518160000160006101000a81548160ff02191690831515021790555060208201518160000160016101000a81548160ff021916908315150217905550604082015181600101908161084a91906134d4565b5060608201518160020155608082015181600301908161086a91906134d4565b5090505060006004836040516108809190613245565b9081526020016040518091039020905060018160000160006101000a81548160ff0219169083151502179055506040518060400160405280600981526020017f7375626d697474656400000000000000000000000000000000000000000000008152508160010190816108f391906134d4565b5042816002018190555061097383336040518060400160405280601281526020017f53545544454e545f5245474953544552454400000000000000000000000000008152506040518060400160405280601481526020017f53747564656e7420726567697374726174696f6e000000000000000000000000815250612747565b7f96336a19de11b134d0c78d80f475646ca6f1f336a950b8bdd27f5534920659a88383426040516109a6939291906135a6565b60405180910390a17f1c66755634ab907c3bd19a48c068cecbd8c6bd23426e649d6482ea5e54e8e0008383426040516109e1939291906136a3565b60405180910390a1505050565b60008054906101000a900473ffffffffffffffffffffffffffffffffffffffff1673ffffffffffffffffffffffffffffffffffffffff163373ffffffffffffffffffffffffffffffffffffffff1614610a7c576040517f08c379a0000000000000000000000000000000000000000000000000000000008152600401610a739061376d565b60405180910390fd5b600184604051610a8c9190613245565b908152602001604051809103902060000160009054906101000a900460ff16610aea576040517f08c379a0000000000000000000000000000000000000000000000000000000008152600401610ae1906132a8565b60405180910390fd5b600384604051610afa9190613245565b908152602001604051809103902083604051610b169190613245565b908152602001604051809103902060000160009054906101000a900460ff16610b74576040517f08c379a0000000000000000000000000000000000000000000000000000000008152600401610b6b906137d9565b60405180910390fd5b604051602001610b8390613845565b6040516020818303038152906040528051906020012082604051602001610baa9190613245565b604051602081830303815290604052805190602001201480610c155750604051602001610bd6906138a6565b6040516020818303038152906040528051906020012082604051602001610bfd9190613245565b60405160208183030381529060405280519060200120145b610c54576040517f08c379a0000000000000000000000000000000000000000000000000000000008152600401610c4b9061392d565b60405180910390fd5b6000600385604051610c669190613245565b908152602001604051809103902084604051610c829190613245565b9081526020016040518091039020905082816003019081610ca391906134d4565b50338160040160006101000a81548173ffffffffffffffffffffffffffffffffffffffff021916908373ffffffffffffffffffffffffffffffffffffffff160217905550428160060181905550604051602001610cff906138a6565b6040516020818303038152906040528051906020012083604051602001610d269190613245565b6040516020818303038152906040528051906020012003610d545781816007019081610d5291906134d4565b505b610db685336040518060400160405280601181526020017f444f43554d454e545f52455649455745440000000000000000000000000000008152508787604051602001610da29291906139e5565b604051602081830303815290604052612747565b7fabfd72f9ddbced01ce75ce5481133c3fd05f99c5b7c38f15205e18c9d5e5a4478585853342604051610ded959493929190613a1f565b60405180910390a15050505050565b6004818051602081018201805184825260208301602085012081835280955050505050506000915090508060000160009054906101000a900460ff1690806001018054610e48906132f7565b80601f0160208091040260200160405190810160405280929190818152602001828054610e74906132f7565b8015610ec15780601f10610e9657610100808354040283529160200191610ec1565b820191906000526020600020905b815481529060010190602001808311610ea457829003601f168201915b5050505050908060020154908060050154905084565b6005828051602081018201805184825260208301602085012081835280955050505050508181548110610f0957600080fd5b9060005260206000209060040201600091509150508060000160009054906101000a900473ffffffffffffffffffffffffffffffffffffffff1690806001018054610f53906132f7565b80601f0160208091040260200160405190810160405280929190818152602001828054610f7f906132f7565b8015610fcc5780601f10610fa157610100808354040283529160200191610fcc565b820191906000526020600020905b815481529060010190602001808311610faf57829003601f168201915b505050505090806002018054610fe1906132f7565b80601f016020809104026020016040519081016040528092919081815260200182805461100d906132f7565b801561105a5780601f1061102f5761010080835404028352916020019161105a565b820191906000526020600020905b81548152906001019060200180831161103d57829003601f168201915b5050505050908060030154905084565b60018360405161107a9190613245565b908152602001604051809103902060000160009054906101000a900460ff166110d8576040517f08c379a00000000000000000000000000000000000000000000000000000000081526004016110cf906132a8565b60405180910390fd5b6003836040516110e89190613245565b9081526020016040518091039020826040516111049190613245565b908152602001604051809103902060000160009054906101000a900460ff1615611163576040517f08c379a000000000000000000000000000000000000000000000000000000000815260040161115a90613ad3565b60405180910390fd5b6040518061010001604052806001151581526020018281526020018381526020016040518060400160405280600781526020017f70656e64696e67000000000000000000000000000000000000000000000000008152508152602001600073ffffffffffffffffffffffffffffffffffffffff168152602001428152602001600081526020016040518060200160405280600081525081525060038460405161120c9190613245565b9081526020016040518091039020836040516112289190613245565b908152602001604051809103902060008201518160000160006101000a81548160ff021916908315150217905550602082015181600101908161126b91906134d4565b50604082015181600201908161128191906134d4565b50606082015181600301908161129791906134d4565b5060808201518160040160006101000a81548173ffffffffffffffffffffffffffffffffffffffff021916908373ffffffffffffffffffffffffffffffffffffffff16021790555060a0820151816005015560c0820151816006015560e082015181600701908161130891906134d4565b50905050600160048460405161131e9190613245565b90815260200160405180910390206004018360405161133d9190613245565b908152602001604051809103902060006101000a81548160ff0219169083151502179055506113c283336040518060400160405280601181526020017f444f43554d454e545f55504c4f41444544000000000000000000000000000000815250856040516020016113ae9190613b3f565b604051602081830303815290604052612747565b7fa8de9c4c8787288b3934a57aca511a6d17074f9ab3f4343860844302e346f5f2838383426040516113f79493929190613b61565b60405180910390a1505050565b6002818051602081018201805184825260208301602085012081835280955050505050506000915090508060000160009054906101000a900460ff16908060000160019054906101000a900460ff1690806001018054611463906132f7565b80601f016020809104026020016040519081016040528092919081815260200182805461148f906132f7565b80156114dc5780601f106114b1576101008083540402835291602001916114dc565b820191906000526020600020905b8154815290600101906020018083116114bf57829003601f168201915b5050505050908060020154908060030180546114f7906132f7565b80601f0160208091040260200160405190810160405280929190818152602001828054611523906132f7565b80156115705780601f1061154557610100808354040283529160200191611570565b820191906000526020600020905b81548152906001019060200180831161155357829003601f168201915b5050505050905085565b60008054906101000a900473ffffffffffffffffffffffffffffffffffffffff1673ffffffffffffffffffffffffffffffffffffffff163373ffffffffffffffffffffffffffffffffffffffff1614611608576040517f08c379a00000000000000000000000000000000000000000000000000000000081526004016115ff9061376d565b60405180910390fd5b6001816040516116189190613245565b908152602001604051809103902060000160009054906101000a900460ff16611676576040517f08c379a000000000000000000000000000000000000000000000000000000000815260040161166d906132a8565b60405180910390fd5b6001816040516116869190613245565b908152602001604051809103902060000160019054906101000a900460ff16156116e5576040517f08c379a00000000000000000000000000000000000000000000000000000000081526004016116dc90613c07565b60405180910390fd5b600180826040516116f69190613245565b908152602001604051809103902060000160016101000a81548160ff02191690831515021790555060028160405161172e9190613245565b908152602001604051809103902060000160009054906101000a900460ff161561178d5760016002826040516117649190613245565b908152602001604051809103902060000160016101000a81548160ff0219169083151502179055505b61180381336040518060400160405280601081526020017f53545544454e545f5645524946494544000000000000000000000000000000008152506040518060400160405280601481526020017f53747564656e7420766572696669636174696f6e000000000000000000000000815250612747565b50565b60008054906101000a900473ffffffffffffffffffffffffffffffffffffffff1673ffffffffffffffffffffffffffffffffffffffff163373ffffffffffffffffffffffffffffffffffffffff1614611894576040517f08c379a000000000000000000000000000000000000000000000000000000000815260040161188b9061376d565b60405180910390fd5b6004826040516118a49190613245565b908152602001604051809103902060000160009054906101000a900460ff16611902576040517f08c379a00000000000000000000000000000000000000000000000000000000081526004016118f990613c73565b60405180910390fd5b806004836040516119139190613245565b9081526020016040518091039020600101908161193091906134d4565b5061199182336040518060400160405280601a81526020017f4150504c49434154494f4e5f5354415455535f555044415445440000000000008152508460405160200161197d9190613cdf565b604051602081830303815290604052612747565b7f2f31a519505e6ea83ea92d4e2be8152636a26156602859f0463da6ba9c29cae08282426040516119c4939291906135a6565b60405180910390a15050565b6119dc83338484612747565b505050565b60008054906101000a900473ffffffffffffffffffffffffffffffffffffffff1673ffffffffffffffffffffffffffffffffffffffff163373ffffffffffffffffffffffffffffffffffffffff1614611a6f576040517f08c379a0000000000000000000000000000000000000000000000000000000008152600401611a66906131e9565b60405180910390fd5b600482604051611a7f9190613245565b908152602001604051809103902060000160009054906101000a900460ff16611add576040517f08c379a0000000000000000000000000000000000000000000000000000000008152600401611ad490613c73565b60405180910390fd5b428111611b1f576040517f08c379a0000000000000000000000000000000000000000000000000000000008152600401611b1690613d4d565b60405180910390fd5b80600483604051611b309190613245565b908152602001604051809103902060050181905550611bad82336040518060400160405280600c81526020017f444541444c494e455f5345540000000000000000000000000000000000000000815250611b898561288d565b604051602001611b999190613db9565b604051602081830303815290604052612747565b7f052570264eb8a0348e0e4a1b1bb79b2604498d7014527901e93344a3cb09d5558282604051611bde929190613ddb565b60405180910390a15050565b6001818051602081018201805184825260208301602085012081835280955050505050506000915090508060000160009054906101000a900460ff16908060000160019054906101000a900460ff1690806001018054611c49906132f7565b80601f0160208091040260200160405190810160405280929190818152602001828054611c75906132f7565b8015611cc25780601f10611c9757610100808354040283529160200191611cc2565b820191906000526020600020905b815481529060010190602001808311611ca557829003601f168201915b5050505050908060020154905084565b60038280516020810182018051848252602083016020850120818352809550505050505081805160208101820180518482526020830160208501208183528095505050505050600091509150508060000160009054906101000a900460ff1690806001018054611d41906132f7565b80601f0160208091040260200160405190810160405280929190818152602001828054611d6d906132f7565b8015611dba5780601f10611d8f57610100808354040283529160200191611dba565b820191906000526020600020905b815481529060010190602001808311611d9d57829003601f168201915b505050505090806002018054611dcf906132f7565b80601f0160208091040260200160405190810160405280929190818152602001828054611dfb906132f7565b8015611e485780601f10611e1d57610100808354040283529160200191611e48565b820191906000526020600020905b815481529060010190602001808311611e2b57829003601f168201915b505050505090806003018054611e5d906132f7565b80601f0160208091040260200160405190810160405280929190818152602001828054611e89906132f7565b8015611ed65780601f10611eab57610100808354040283529160200191611ed6565b820191906000526020600020905b815481529060010190602001808311611eb957829003601f168201915b5050505050908060040160009054906101000a900473ffffffffffffffffffffffffffffffffffffffff1690806005015490806006015490806007018054611f1d906132f7565b80601f0160208091040260200160405190810160405280929190818152602001828054611f49906132f7565b8015611f965780601f10611f6b57610100808354040283529160200191611f96565b820191906000526020600020905b815481529060010190602001808311611f7957829003601f168201915b5050505050905088565b60008054906101000a900473ffffffffffffffffffffffffffffffffffffffff1673ffffffffffffffffffffffffffffffffffffffff163373ffffffffffffffffffffffffffffffffffffffff161461202e576040517f08c379a0000000000000000000000000000000000000000000000000000000008152600401612025906131e9565b60405180910390fd5b60028360405161203e9190613245565b908152602001604051809103902060000160009054906101000a900460ff161561209d576040517f08c379a000000000000000000000000000000000000000000000000000000000815260040161209490613e57565b60405180910390fd5b6040518060a00160405280600115158152602001600015158152602001828152602001428152602001838152506002846040516120da9190613245565b908152602001604051809103902060008201518160000160006101000a81548160ff02191690831515021790555060208201518160000160016101000a81548160ff021916908315150217905550604082015181600101908161213d91906134d4565b5060608201518160020155608082015181600301908161215d91906134d4565b509050506121c183336040518060400160405280600f81526020017f555345525f524547495354455245440000000000000000000000000000000000815250856040516020016121ad9190613ec3565b604051602081830303815290604052612747565b7f1c66755634ab907c3bd19a48c068cecbd8c6bd23426e649d6482ea5e54e8e000838383426040516121f69493929190613b61565b60405180910390a1505050565b60068180516020810182018051848252602083016020850120818352809550505050505060009150905080600001805461223c906132f7565b80601f0160208091040260200160405190810160405280929190818152602001828054612268906132f7565b80156122b55780601f1061228a576101008083540402835291602001916122b5565b820191906000526020600020905b81548152906001019060200180831161229857829003601f168201915b5050505050908060010180546122ca906132f7565b80601f01602080910402602001604051908101604052809291908181526020018280546122f6906132f7565b80156123435780601f1061231857610100808354040283529160200191612343565b820191906000526020600020905b81548152906001019060200180831161232657829003601f168201915b5050505050908060020154908060030160009054906101000a900460ff16905084565b60008054906101000a900473ffffffffffffffffffffffffffffffffffffffff1673ffffffffffffffffffffffffffffffffffffffff163373ffffffffffffffffffffffffffffffffffffffff16146123f4576040517f08c379a00000000000000000000000000000000000000000000000000000000081526004016123eb906131e9565b60405180910390fd5b6002816040516124049190613245565b908152602001604051809103902060000160009054906101000a900460ff16612462576040517f08c379a000000000000000000000000000000000000000000000000000000000815260040161245990613f31565b60405180910390fd5b6002816040516124729190613245565b908152602001604051809103902060000160019054906101000a900460ff16156124d1576040517f08c379a00000000000000000000000000000000000000000000000000000000081526004016124c890613f9d565b60405180910390fd5b60016002826040516124e39190613245565b908152602001604051809103902060000160016101000a81548160ff02191690831515021790555060405160200161251a90613fe0565b604051602081830303815290604052805190602001206002826040516125409190613245565b90815260200160405180910390206003016040516020016125619190614078565b60405160208183030381529060405280519060200120036125eb5760018160405161258c9190613245565b908152602001604051809103902060000160009054906101000a900460ff16156125ea57600180826040516125c19190613245565b908152602001604051809103902060000160016101000a81548160ff0219169083151502179055505b5b61266b81336040518060400160405280600d81526020017f555345525f5645524946494544000000000000000000000000000000000000008152506002856040516126369190613245565b908152602001604051809103902060030160405160200161265791906140db565b604051602081830303815290604052612747565b50565b60006004826040516126809190613245565b908152602001604051809103902060000160009054906101000a900460ff166126de576040517f08c379a00000000000000000000000000000000000000000000000000000000081526004016126d590613c73565b60405180910390fd5b60006004836040516126f09190613245565b90815260200160405180910390206005015490506000810361271657600191505061271e565b804211159150505b919050565b60008054906101000a900473ffffffffffffffffffffffffffffffffffffffff1681565b600060405180608001604052808573ffffffffffffffffffffffffffffffffffffffff1681526020018481526020018381526020014281525090506005856040516127929190613245565b908152602001604051809103902081908060018154018082558091505060019003906000526020600020906004020160009091909190915060008201518160000160006101000a81548173ffffffffffffffffffffffffffffffffffffffff021916908373ffffffffffffffffffffffffffffffffffffffff160217905550602082015181600101908161282691906134d4565b50604082015181600201908161283c91906134d4565b506060820151816003015550507f894124ab7c74b0e9a122d53df4981f2179d417659c9f76ff9acda517ac4c42b98585854260405161287e94939291906140fd565b60405180910390a15050505050565b6060600082036128d4576040518060400160405280600181526020017f300000000000000000000000000000000000000000000000000000000000000081525090506129ee565b600082905060005b600082146129065780806128ef9061417f565b915050600a826128ff91906141f6565b91506128dc565b60008167ffffffffffffffff81111561292257612921612a22565b5b6040519080825280601f01601f1916602001820160405280156129545781602001600182028036833780820191505090505b50905060008290508593505b600084146129e657600a846129759190614227565b60306129819190614258565b60f81b828261298f9061428c565b925082815181106129a3576129a26142b5565b5b60200101907effffffffffffffffffffffffffffffffffffffffffffffffffffffffffffff1916908160001a905350600a846129df91906141f6565b9350612960565b819450505050505b919050565b6000604051905090565b600080fd5b600080fd5b600080fd5b600080fd5b6000601f19601f8301169050919050565b7f4e487b7100000000000000000000000000000000000000000000000000000000600052604160045260246000fd5b612a5a82612a11565b810181811067ffffffffffffffff82111715612a7957612a78612a22565b5b80604052505050565b6000612a8c6129f3565b9050612a988282612a51565b919050565b600067ffffffffffffffff821115612ab857612ab7612a22565b5b612ac182612a11565b9050602081019050919050565b82818337600083830152505050565b6000612af0612aeb84612a9d565b612a82565b905082815260208101848484011115612b0c57612b0b612a0c565b5b612b17848285612ace565b509392505050565b600082601f830112612b3457612b33612a07565b5b8135612b44848260208601612add565b91505092915050565b600080600060608486031215612b6657612b656129fd565b5b600084013567ffffffffffffffff811115612b8457612b83612a02565b5b612b9086828701612b1f565b935050602084013567ffffffffffffffff811115612bb157612bb0612a02565b5b612bbd86828701612b1f565b925050604084013567ffffffffffffffff811115612bde57612bdd612a02565b5b612bea86828701612b1f565b9150509250925092565b60008060408385031215612c0b57612c0a6129fd565b5b600083013567ffffffffffffffff811115612c2957612c28612a02565b5b612c3585828601612b1f565b925050602083013567ffffffffffffffff811115612c5657612c55612a02565b5b612c6285828601612b1f565b9150509250929050565b60008060008060808587031215612c8657612c856129fd565b5b600085013567ffffffffffffffff811115612ca457612ca3612a02565b5b612cb087828801612b1f565b945050602085013567ffffffffffffffff811115612cd157612cd0612a02565b5b612cdd87828801612b1f565b935050604085013567ffffffffffffffff811115612cfe57612cfd612a02565b5b612d0a87828801612b1f565b925050606085013567ffffffffffffffff811115612d2b57612d2a612a02565b5b612d3787828801612b1f565b91505092959194509250565b600060208284031215612d5957612d586129fd565b5b600082013567ffffffffffffffff811115612d7757612d76612a02565b5b612d8384828501612b1f565b91505092915050565b60008115159050919050565b612da181612d8c565b82525050565b600081519050919050565b600082825260208201905092915050565b60005b83811015612de1578082015181840152602081019050612dc6565b60008484015250505050565b6000612df882612da7565b612e028185612db2565b9350612e12818560208601612dc3565b612e1b81612a11565b840191505092915050565b6000819050919050565b612e3981612e26565b82525050565b6000608082019050612e546000830187612d98565b8181036020830152612e668186612ded565b9050612e756040830185612e30565b612e826060830184612e30565b95945050505050565b612e9481612e26565b8114612e9f57600080fd5b50565b600081359050612eb181612e8b565b92915050565b60008060408385031215612ece57612ecd6129fd565b5b600083013567ffffffffffffffff811115612eec57612eeb612a02565b5b612ef885828601612b1f565b9250506020612f0985828601612ea2565b9150509250929050565b600073ffffffffffffffffffffffffffffffffffffffff82169050919050565b6000612f3e82612f13565b9050919050565b612f4e81612f33565b82525050565b6000608082019050612f696000830187612f45565b8181036020830152612f7b8186612ded565b90508181036040830152612f8f8185612ded565b9050612f9e6060830184612e30565b95945050505050565b600060a082019050612fbc6000830188612d98565b612fc96020830187612d98565b8181036040830152612fdb8186612ded565b9050612fea6060830185612e30565b8181036080830152612ffc8184612ded565b90509695505050505050565b600060808201905061301d6000830187612d98565b61302a6020830186612d98565b818103604083015261303c8185612ded565b905061304b6060830184612e30565b95945050505050565b60006101008201905061306a600083018b612d98565b818103602083015261307c818a612ded565b905081810360408301526130908189612ded565b905081810360608301526130a48188612ded565b90506130b36080830187612f45565b6130c060a0830186612e30565b6130cd60c0830185612e30565b81810360e08301526130df8184612ded565b90509998505050505050505050565b600060808201905081810360008301526131088187612ded565b9050818103602083015261311c8186612ded565b905061312b6040830185612e30565b6131386060830184612d98565b95945050505050565b60006020820190506131566000830184612d98565b92915050565b60006020820190506131716000830184612f45565b92915050565b7f4f6e6c792061646d696e2063616e2063616c6c20746869732066756e6374696f60008201527f6e00000000000000000000000000000000000000000000000000000000000000602082015250565b60006131d3602183612db2565b91506131de82613177565b604082019050919050565b60006020820190508181036000830152613202816131c6565b9050919050565b600081905092915050565b600061321f82612da7565b6132298185613209565b9350613239818560208601612dc3565b80840191505092915050565b60006132518284613214565b915081905092915050565b7f53747564656e7420646f6573206e6f7420657869737400000000000000000000600082015250565b6000613292601683612db2565b915061329d8261325c565b602082019050919050565b600060208201905081810360008301526132c181613285565b9050919050565b7f4e487b7100000000000000000000000000000000000000000000000000000000600052602260045260246000fd5b6000600282049050600182168061330f57607f821691505b602082108103613322576133216132c8565b5b50919050565b60008190508160005260206000209050919050565b60006020601f8301049050919050565b600082821b905092915050565b60006008830261338a7fffffffffffffffffffffffffffffffffffffffffffffffffffffffffffffffff8261334d565b613394868361334d565b95508019841693508086168417925050509392505050565b6000819050919050565b60006133d16133cc6133c784612e26565b6133ac565b612e26565b9050919050565b6000819050919050565b6133eb836133b6565b6133ff6133f7826133d8565b84845461335a565b825550505050565b600090565b613414613407565b61341f8184846133e2565b505050565b5b818110156134435761343860008261340c565b600181019050613425565b5050565b601f8211156134885761345981613328565b6134628461333d565b81016020851015613471578190505b61348561347d8561333d565b830182613424565b50505b505050565b600082821c905092915050565b60006134ab6000198460080261348d565b1980831691505092915050565b60006134c4838361349a565b9150826002028217905092915050565b6134dd82612da7565b67ffffffffffffffff8111156134f6576134f5612a22565b5b61350082546132f7565b61350b828285613447565b600060209050601f83116001811461353e576000841561352c578287015190505b61353685826134b8565b86555061359e565b601f19841661354c86613328565b60005b828110156135745784890151825560018201915060208501945060208101905061354f565b86831015613591578489015161358d601f89168261349a565b8355505b6001600288020188555050505b505050505050565b600060608201905081810360008301526135c08186612ded565b905081810360208301526135d48185612ded565b90506135e36040830184612e30565b949350505050565b7f53747564656e7420616c72656164792065786973747300000000000000000000600082015250565b6000613621601683612db2565b915061362c826135eb565b602082019050919050565b6000602082019050818103600083015261365081613614565b9050919050565b7f73747564656e7400000000000000000000000000000000000000000000000000600082015250565b600061368d600783612db2565b915061369882613657565b602082019050919050565b600060808201905081810360008301526136bd8186612ded565b905081810360208301526136d081613680565b905081810360408301526136e48185612ded565b90506136f36060830184612e30565b949350505050565b7f4f6e6c792073746166662063616e2063616c6c20746869732066756e6374696f60008201527f6e00000000000000000000000000000000000000000000000000000000000000602082015250565b6000613757602183612db2565b9150613762826136fb565b604082019050919050565b600060208201905081810360008301526137868161374a565b9050919050565b7f446f63756d656e7420646f6573206e6f74206578697374000000000000000000600082015250565b60006137c3601783612db2565b91506137ce8261378d565b602082019050919050565b600060208201905081810360008301526137f2816137b6565b9050919050565b7f617070726f766564000000000000000000000000000000000000000000000000600082015250565b600061382f600883613209565b915061383a826137f9565b600882019050919050565b600061385082613822565b9150819050919050565b7f72656a6563746564000000000000000000000000000000000000000000000000600082015250565b6000613890600883613209565b915061389b8261385a565b600882019050919050565b60006138b182613883565b9150819050919050565b7f537461747573206d7573742062652027617070726f76656427206f722027726560008201527f6a65637465642700000000000000000000000000000000000000000000000000602082015250565b6000613917602783612db2565b9150613922826138bb565b604082019050919050565b600060208201905081810360008301526139468161390a565b9050919050565b7f446f63756d656e742072657669657765643a2000000000000000000000000000600082015250565b6000613983601383613209565b915061398e8261394d565b601382019050919050565b7f202d200000000000000000000000000000000000000000000000000000000000600082015250565b60006139cf600383613209565b91506139da82613999565b600382019050919050565b60006139f082613976565b91506139fc8285613214565b9150613a07826139c2565b9150613a138284613214565b91508190509392505050565b600060a0820190508181036000830152613a398188612ded565b90508181036020830152613a4d8187612ded565b90508181036040830152613a618186612ded565b9050613a706060830185612f45565b613a7d6080830184612e30565b9695505050505050565b7f446f63756d656e7420616c726561647920657869737473000000000000000000600082015250565b6000613abd601783612db2565b9150613ac882613a87565b602082019050919050565b60006020820190508181036000830152613aec81613ab0565b9050919050565b7f446f63756d656e742075706c6f616465643a2000000000000000000000000000600082015250565b6000613b29601383613209565b9150613b3482613af3565b601382019050919050565b6000613b4a82613b1c565b9150613b568284613214565b915081905092915050565b60006080820190508181036000830152613b7b8187612ded565b90508181036020830152613b8f8186612ded565b90508181036040830152613ba38185612ded565b9050613bb26060830184612e30565b95945050505050565b7f53747564656e7420616c72656164792076657269666965640000000000000000600082015250565b6000613bf1601883612db2565b9150613bfc82613bbb565b602082019050919050565b60006020820190508181036000830152613c2081613be4565b9050919050565b7f4170706c69636174696f6e20646f6573206e6f74206578697374000000000000600082015250565b6000613c5d601a83612db2565b9150613c6882613c27565b602082019050919050565b60006020820190508181036000830152613c8c81613c50565b9050919050565b7f4170706c69636174696f6e20737461747573207570646174656420746f3a2000600082015250565b6000613cc9601f83613209565b9150613cd482613c93565b601f82019050919050565b6000613cea82613cbc565b9150613cf68284613214565b915081905092915050565b7f446561646c696e65206d75737420626520696e20746865206675747572650000600082015250565b6000613d37601e83612db2565b9150613d4282613d01565b602082019050919050565b60006020820190508181036000830152613d6681613d2a565b9050919050565b7f446561646c696e652073657420666f723a200000000000000000000000000000600082015250565b6000613da3601283613209565b9150613dae82613d6d565b601282019050919050565b6000613dc482613d96565b9150613dd08284613214565b915081905092915050565b60006040820190508181036000830152613df58185612ded565b9050613e046020830184612e30565b9392505050565b7f5573657220616c72656164792065786973747300000000000000000000000000600082015250565b6000613e41601383612db2565b9150613e4c82613e0b565b602082019050919050565b60006020820190508181036000830152613e7081613e34565b9050919050565b7f20726567697374726174696f6e00000000000000000000000000000000000000600082015250565b6000613ead600d83613209565b9150613eb882613e77565b600d82019050919050565b6000613ecf8284613214565b9150613eda82613ea0565b915081905092915050565b7f5573657220646f6573206e6f7420657869737400000000000000000000000000600082015250565b6000613f1b601383612db2565b9150613f2682613ee5565b602082019050919050565b60006020820190508181036000830152613f4a81613f0e565b9050919050565b7f5573657220616c72656164792076657269666965640000000000000000000000600082015250565b6000613f87601583612db2565b9150613f9282613f51565b602082019050919050565b60006020820190508181036000830152613fb681613f7a565b9050919050565b6000613fca600783613209565b9150613fd582613657565b600782019050919050565b6000613feb82613fbd565b9150819050919050565b60008154614002816132f7565b61400c8186613209565b94506001821660008114614027576001811461403c5761406f565b60ff198316865281151582028601935061406f565b61404585613328565b60005b8381101561406757815481890152600182019150602081019050614048565b838801955050505b50505092915050565b60006140848284613ff5565b915081905092915050565b7f20766572696669636174696f6e00000000000000000000000000000000000000600082015250565b60006140c5600d83613209565b91506140d08261408f565b600d82019050919050565b60006140e78284613ff5565b91506140f2826140b8565b915081905092915050565b600060808201905081810360008301526141178187612ded565b90506141266020830186612f45565b81810360408301526141388185612ded565b90506141476060830184612e30565b95945050505050565b7f4e487b7100000000000000000000000000000000000000000000000000000000600052601160045260246000fd5b600061418a82612e26565b91507fffffffffffffffffffffffffffffffffffffffffffffffffffffffffffffffff82036141bc576141bb614150565b5b600182019050919050565b7f4e487b7100000000000000000000000000000000000000000000000000000000600052601260045260246000fd5b600061420182612e26565b915061420c83612e26565b92508261421c5761421b6141c7565b5b828204905092915050565b600061423282612e26565b915061423d83612e26565b92508261424d5761424c6141c7565b5b828206905092915050565b600061426382612e26565b915061426e83612e26565b925082820190508082111561428657614285614150565b5b92915050565b600061429782612e26565b9150600082036142aa576142a9614150565b5b600182039050919050565b7f4e487b7100000000000000000000000000000000000000000000000000000000600052603260045260246000fdfea26469706673582212206eba6557a2300a4525245b2d3120e4d4a2e5dfad8ba53959b9f305856e7665b064736f6c63430008110033",
  "linkReferences": {},
  "deployedLinkReferences": {}
}