{
  "_format": "hh-sol-artifact-1",
  "contractName": "EnrollmentSystem",
  "sourceName": "contracts/EnrollmentSystem.sol",
  "abi": [
    {
      "inputs": [],
      "stateMutability": "nonpayable",
      "type": "constructor"
    },
    {
      "anonymous": false,
      "inputs": [
        {
          "indexed": false,
          "internalType": "string",
          "name": "applicationId",
          "type": "string"
        },
        {
          "indexed": false,
          "internalType": "string",
          "name": "status",
          "type": "string"
        },
        {
          "indexed": false,
          "internalType": "uint256",
          "name": "timestamp",
          "type": "uint256"
        }
      ],
      "name": "ApplicationStatusChanged",
      "type": "event"
    },
    {
      "anonymous": false,
      "inputs": [
        {
          "indexed": false,
          "internalType": "string",
          "name": "applicationId",
          "type": "string"
        },
        {
          "indexed": false,
          "internalType": "uint256",
          "name": "deadlineTimestamp",
          "type": "uint256"
        }
      ],
      "name": "DeadlineSet",
      "type": "event"
    },
    {
      "anonymous": false,
      "inputs": [
        {
          "indexed": false,
          "internalType": "string",
          "name": "applicationId",
          "type": "string"
        },
        {
          "indexed": false,
          "internalType": "string",
          "name": "documentType",
          "type": "string"
        },
        {
          "indexed": false,
          "internalType": "string",
          "name": "status",
          "type": "string"
        },
        {
          "indexed": false,
          "internalType": "address",
          "name": "reviewer",
          "type": "address"
        },
        {
          "indexed": false,
          "internalType": "uint256",
          "name": "timestamp",
          "type": "uint256"
        }
      ],
      "name": "DocumentReviewed",
      "type": "event"
    },
    {
      "anonymous": false,
      "inputs": [
        {
          "indexed": false,
          "internalType": "string",
          "name": "applicationId",
          "type": "string"
        },
        {
          "indexed": false,
          "internalType": "string",
          "name": "documentType",
          "type": "string"
        },
        {
          "indexed": false,
          "internalType": "string",
          "name": "documentHash",
          "type": "string"
        },
        {
          "indexed": false,
          "internalType": "uint256",
          "name": "timestamp",
          "type": "uint256"
        }
      ],
      "name": "DocumentUploaded",
      "type": "event"
    },
    {
      "anonymous": false,
      "inputs": [
        {
          "indexed": false,
          "internalType": "string",
          "name": "applicationId",
          "type": "string"
        },
        {
          "indexed": false,
          "internalType": "address",
          "name": "actor",
          "type": "address"
        },
        {
          "indexed": false,
          "internalType": "string",
          "name": "action",
          "type": "string"
        },
        {
          "indexed": false,
          "internalType": "uint256",
          "name": "timestamp",
          "type": "uint256"
        }
      ],
      "name": "LogRecorded",
      "type": "event"
    },
    {
      "anonymous": false,
      "inputs": [
        {
          "indexed": false,
          "internalType": "string",
          "name": "applicationId",
          "type": "string"
        },
        {
          "indexed": false,
          "internalType": "string",
          "name": "dataHash",
          "type": "string"
        },
        {
          "indexed": false,
          "internalType": "uint256",
          "name": "timestamp",
          "type": "uint256"
        }
      ],
      "name": "StudentRegistered",
      "type": "event"
    },
    {
      "inputs": [
        {
          "internalType": "string",
          "name": "applicationId",
          "type": "string"
        },
        {
          "internalType": "string",
          "name": "documentType",
          "type": "string"
        },
        {
          "internalType": "string",
          "name": "documentHash",
          "type": "string"
        }
      ],
      "name": "addDocument",
      "outputs": [],
      "stateMutability": "nonpayable",
      "type": "function"
    },
    {
      "inputs": [],
      "name": "admin",
      "outputs": [
        {
          "internalType": "address",
          "name": "",
          "type": "address"
        }
      ],
      "stateMutability": "view",
      "type": "function"
    },
    {
      "inputs": [
        {
          "internalType": "string",
          "name": "",
          "type": "string"
        }
      ],
      "name": "applications",
      "outputs": [
        {
          "internalType": "bool",
          "name": "exists",
          "type": "bool"
        },
        {
          "internalType": "string",
          "name": "status",
          "type": "string"
        },
        {
          "internalType": "uint256",
          "name": "submissionTime",
          "type": "uint256"
        },
        {
          "internalType": "uint256",
          "name": "deadlineTimestamp",
          "type": "uint256"
        }
      ],
      "stateMutability": "view",
      "type": "function"
    },
    {
      "inputs": [
        {
          "internalType": "string",
          "name": "",
          "type": "string"
        },
        {
          "internalType": "uint256",
          "name": "",
          "type": "uint256"
        }
      ],
      "name": "auditLogs",
      "outputs": [
        {
          "internalType": "address",
          "name": "actor",
          "type": "address"
        },
        {
          "internalType": "string",
          "name": "action",
          "type": "string"
        },
        {
          "internalType": "string",
          "name": "details",
          "type": "string"
        },
        {
          "internalType": "uint256",
          "name": "timestamp",
          "type": "uint256"
        }
      ],
      "stateMutability": "view",
      "type": "function"
    },
    {
      "inputs": [
        {
          "internalType": "string",
          "name": "",
          "type": "string"
        },
        {
          "internalType": "string",
          "name": "",
          "type": "string"
        }
      ],
      "name": "documents",
      "outputs": [
        {
          "internalType": "bool",
          "name": "exists",
          "type": "bool"
        },
        {
          "internalType": "string",
          "name": "documentHash",
          "type": "string"
        },
        {
          "internalType": "string",
          "name": "documentType",
          "type": "string"
        },
        {
          "internalType": "string",
          "name": "status",
          "type": "string"
        },
        {
          "internalType": "address",
          "name": "reviewedBy",
          "type": "address"
        },
        {
          "internalType": "uint256",
          "name": "uploadTime",
          "type": "uint256"
        },
        {
          "internalType": "uint256",
          "name": "reviewTime",
          "type": "uint256"
        },
        {
          "internalType": "string",
          "name": "rejectionReason",
          "type": "string"
        }
      ],
      "stateMutability": "view",
      "type": "function"
    },
    {
      "inputs": [
        {
          "internalType": "string",
          "name": "applicationId",
          "type": "string"
        }
      ],
      "name": "isWithinDeadline",
      "outputs": [
        {
          "internalType": "bool",
          "name": "",
          "type": "bool"
        }
      ],
      "stateMutability": "view",
      "type": "function"
    },
    {
      "inputs": [
        {
          "internalType": "string",
          "name": "applicationId",
          "type": "string"
        },
        {
          "internalType": "string",
          "name": "dataHash",
          "type": "string"
        }
      ],
      "name": "registerStudent",
      "outputs": [],
      "stateMutability": "nonpayable",
      "type": "function"
    },
    {
      "inputs": [
        {
          "internalType": "string",
          "name": "applicationId",
          "type": "string"
        },
        {
          "internalType": "string",
          "name": "documentType",
          "type": "string"
        },
        {
          "internalType": "string",
          "name": "status",
          "type": "string"
        },
        {
          "internalType": "string",
          "name": "rejectionReason",
          "type": "string"
        }
      ],
      "name": "reviewDocument",
      "outputs": [],
      "stateMutability": "nonpayable",
      "type": "function"
    },
    {
      "inputs": [
        {
          "internalType": "string",
          "name": "applicationId",
          "type": "string"
        },
        {
          "internalType": "uint256",
          "name": "deadlineTimestamp",
          "type": "uint256"
        }
      ],
      "name": "setDeadline",
      "outputs": [],
      "stateMutability": "nonpayable",
      "type": "function"
    },
    {
      "inputs": [
        {
          "internalType": "string",
          "name": "",
          "type": "string"
        }
      ],
      "name": "students",
      "outputs": [
        {
          "internalType": "bool",
          "name": "exists",
          "type": "bool"
        },
        {
          "internalType": "bool",
          "name": "verified",
          "type": "bool"
        },
        {
          "internalType": "string",
          "name": "dataHash",
          "type": "string"
        },
        {
          "internalType": "uint256",
          "name": "registrationTime",
          "type": "uint256"
        }
      ],
      "stateMutability": "view",
      "type": "function"
    },
    {
      "inputs": [
        {
          "internalType": "string",
          "name": "applicationId",
          "type": "string"
        },
        {
          "internalType": "string",
          "name": "status",
          "type": "string"
        }
      ],
      "name": "updateApplicationStatus",
      "outputs": [],
      "stateMutability": "nonpayable",
      "type": "function"
    },
    {
      "inputs": [
        {
          "internalType": "string",
          "name": "applicationId",
          "type": "string"
        }
      ],
      "name": "verifyStudent",
      "outputs": [],
      "stateMutability": "nonpayable",
      "type": "function"
    }
  ],
  "bytecode": "0x608060405234801561001057600080fd5b50336000806101000a81548173ffffffffffffffffffffffffffffffffffffffff021916908373ffffffffffffffffffffffffffffffffffffffff160217905550613187806100606000396000f3fe608060405234801561001057600080fd5b50600436106100b45760003560e01c80638db1655a116100715780638db1655a1461018f578063afcd23f2146101ab578063c7ef6bfb146101c7578063cda78de8146101fa578063f5c6dec114610231578063f851a44014610261576100b4565b80630a1b776c146100b95780630f65d1a6146100d5578063185f4882146100f157806324d8b90f1461012457806336a8915b1461015757806387d8a84e14610173575b600080fd5b6100d360048036038101906100ce9190611e04565b61027f565b005b6100ef60048036038101906100ea9190611e7c565b610569565b005b61010b60048036038101906101069190611f53565b610977565b60405161011b949392919061204f565b60405180910390f35b61013e600480360381019061013991906120c7565b610a52565b60405161014e9493929190612164565b60405180910390f35b610171600480360381019061016c91906121b7565b610be5565b005b61018d60048036038101906101889190611f53565b610f7f565b005b6101a960048036038101906101a49190611e04565b61119c565b005b6101c560048036038101906101c091906120c7565b611366565b005b6101e160048036038101906101dc9190611f53565b61156f565b6040516101f1949392919061225e565b60405180910390f35b610214600480360381019061020f9190611e04565b611657565b6040516102289897969594939291906122aa565b60405180910390f35b61024b60048036038101906102469190611f53565b611925565b6040516102589190612344565b60405180910390f35b6102696119da565b604051610276919061235f565b60405180910390f35b60008054906101000a900473ffffffffffffffffffffffffffffffffffffffff1673ffffffffffffffffffffffffffffffffffffffff163373ffffffffffffffffffffffffffffffffffffffff161461030d576040517f08c379a0000000000000000000000000000000000000000000000000000000008152600401610304906123ec565b60405180910390fd5b60018260405161031d9190612448565b908152602001604051809103902060000160009054906101000a900460ff161561037c576040517f08c379a0000000000000000000000000000000000000000000000000000000008152600401610373906124ab565b60405180910390fd5b6040518060800160405280600115158152602001600015158152602001828152602001428152506001836040516103b39190612448565b908152602001604051809103902060008201518160000160006101000a81548160ff02191690831515021790555060208201518160000160016101000a81548160ff021916908315150217905550604082015181600101908161041691906126d7565b506060820151816002015590505060006003836040516104369190612448565b9081526020016040518091039020905060018160000160006101000a81548160ff0219169083151502179055506040518060400160405280600981526020017f7375626d697474656400000000000000000000000000000000000000000000008152508160010190816104a991906126d7565b5042816002018190555061052983336040518060400160405280601281526020017f53545544454e545f5245474953544552454400000000000000000000000000008152506040518060400160405280601481526020017f53747564656e7420726567697374726174696f6e0000000000000000000000008152506119fe565b7f96336a19de11b134d0c78d80f475646ca6f1f336a950b8bdd27f5534920659a883834260405161055c939291906127a9565b60405180910390a1505050565b60008054906101000a900473ffffffffffffffffffffffffffffffffffffffff1673ffffffffffffffffffffffffffffffffffffffff163373ffffffffffffffffffffffffffffffffffffffff16146105f7576040517f08c379a00000000000000000000000000000000000000000000000000000000081526004016105ee90612860565b60405180910390fd5b6001846040516106079190612448565b908152602001604051809103902060000160009054906101000a900460ff16610665576040517f08c379a000000000000000000000000000000000000000000000000000000000815260040161065c906128cc565b60405180910390fd5b6002846040516106759190612448565b9081526020016040518091039020836040516106919190612448565b908152602001604051809103902060000160009054906101000a900460ff166106ef576040517f08c379a00000000000000000000000000000000000000000000000000000000081526004016106e690612938565b60405180910390fd5b6040516020016106fe906129a4565b60405160208183030381529060405280519060200120826040516020016107259190612448565b604051602081830303815290604052805190602001201480610790575060405160200161075190612a05565b60405160208183030381529060405280519060200120826040516020016107789190612448565b60405160208183030381529060405280519060200120145b6107cf576040517f08c379a00000000000000000000000000000000000000000000000000000000081526004016107c690612a8c565b60405180910390fd5b60006002856040516107e19190612448565b9081526020016040518091039020846040516107fd9190612448565b908152602001604051809103902090508281600301908161081e91906126d7565b50338160040160006101000a81548173ffffffffffffffffffffffffffffffffffffffff021916908373ffffffffffffffffffffffffffffffffffffffff16021790555042816006018190555060405160200161087a90612a05565b60405160208183030381529060405280519060200120836040516020016108a19190612448565b60405160208183030381529060405280519060200120036108cf57818160070190816108cd91906126d7565b505b61093185336040518060400160405280601181526020017f444f43554d454e545f5245564945574544000000000000000000000000000000815250878760405160200161091d929190612b44565b6040516020818303038152906040526119fe565b7fabfd72f9ddbced01ce75ce5481133c3fd05f99c5b7c38f15205e18c9d5e5a4478585853342604051610968959493929190612b7e565b60405180910390a15050505050565b6003818051602081018201805184825260208301602085012081835280955050505050506000915090508060000160009054906101000a900460ff16908060010180546109c3906124fa565b80601f01602080910402602001604051908101604052809291908181526020018280546109ef906124fa565b8015610a3c5780601f10610a1157610100808354040283529160200191610a3c565b820191906000526020600020905b815481529060010190602001808311610a1f57829003601f168201915b5050505050908060020154908060050154905084565b6004828051602081018201805184825260208301602085012081835280955050505050508181548110610a8457600080fd5b9060005260206000209060040201600091509150508060000160009054906101000a900473ffffffffffffffffffffffffffffffffffffffff1690806001018054610ace906124fa565b80601f0160208091040260200160405190810160405280929190818152602001828054610afa906124fa565b8015610b475780601f10610b1c57610100808354040283529160200191610b47565b820191906000526020600020905b815481529060010190602001808311610b2a57829003601f168201915b505050505090806002018054610b5c906124fa565b80601f0160208091040260200160405190810160405280929190818152602001828054610b88906124fa565b8015610bd55780601f10610baa57610100808354040283529160200191610bd5565b820191906000526020600020905b815481529060010190602001808311610bb857829003601f168201915b5050505050908060030154905084565b600183604051610bf59190612448565b908152602001604051809103902060000160009054906101000a900460ff16610c53576040517f08c379a0000000000000000000000000000000000000000000000000000000008152600401610c4a906128cc565b60405180910390fd5b600283604051610c639190612448565b908152602001604051809103902082604051610c7f9190612448565b908152602001604051809103902060000160009054906101000a900460ff1615610cde576040517f08c379a0000000000000000000000000000000000000000000000000000000008152600401610cd590612c32565b60405180910390fd5b6040518061010001604052806001151581526020018281526020018381526020016040518060400160405280600781526020017f70656e64696e67000000000000000000000000000000000000000000000000008152508152602001600073ffffffffffffffffffffffffffffffffffffffff1681526020014281526020016000815260200160405180602001604052806000815250815250600284604051610d879190612448565b908152602001604051809103902083604051610da39190612448565b908152602001604051809103902060008201518160000160006101000a81548160ff0219169083151502179055506020820151816001019081610de691906126d7565b506040820151816002019081610dfc91906126d7565b506060820151816003019081610e1291906126d7565b5060808201518160040160006101000a81548173ffffffffffffffffffffffffffffffffffffffff021916908373ffffffffffffffffffffffffffffffffffffffff16021790555060a0820151816005015560c0820151816006015560e0820151816007019081610e8391906126d7565b509050506001600384604051610e999190612448565b908152602001604051809103902060040183604051610eb89190612448565b908152602001604051809103902060006101000a81548160ff021916908315150217905550610f3d83336040518060400160405280601181526020017f444f43554d454e545f55504c4f4144454400000000000000000000000000000081525085604051602001610f299190612c9e565b6040516020818303038152906040526119fe565b7fa8de9c4c8787288b3934a57aca511a6d17074f9ab3f4343860844302e346f5f283838342604051610f729493929190612cc0565b60405180910390a1505050565b60008054906101000a900473ffffffffffffffffffffffffffffffffffffffff1673ffffffffffffffffffffffffffffffffffffffff163373ffffffffffffffffffffffffffffffffffffffff161461100d576040517f08c379a000000000000000000000000000000000000000000000000000000000815260040161100490612860565b60405180910390fd5b60018160405161101d9190612448565b908152602001604051809103902060000160009054906101000a900460ff1661107b576040517f08c379a0000000000000000000000000000000000000000000000000000000008152600401611072906128cc565b60405180910390fd5b60018160405161108b9190612448565b908152602001604051809103902060000160019054906101000a900460ff16156110ea576040517f08c379a00000000000000000000000000000000000000000000000000000000081526004016110e190612d66565b60405180910390fd5b600180826040516110fb9190612448565b908152602001604051809103902060000160016101000a81548160ff02191690831515021790555061119981336040518060400160405280601081526020017f53545544454e545f5645524946494544000000000000000000000000000000008152506040518060400160405280601481526020017f53747564656e7420766572696669636174696f6e0000000000000000000000008152506119fe565b50565b60008054906101000a900473ffffffffffffffffffffffffffffffffffffffff1673ffffffffffffffffffffffffffffffffffffffff163373ffffffffffffffffffffffffffffffffffffffff161461122a576040517f08c379a000000000000000000000000000000000000000000000000000000000815260040161122190612860565b60405180910390fd5b60038260405161123a9190612448565b908152602001604051809103902060000160009054906101000a900460ff16611298576040517f08c379a000000000000000000000000000000000000000000000000000000000815260040161128f90612dd2565b60405180910390fd5b806003836040516112a99190612448565b908152602001604051809103902060010190816112c691906126d7565b5061132782336040518060400160405280601a81526020017f4150504c49434154494f4e5f5354415455535f55504441544544000000000000815250846040516020016113139190612e3e565b6040516020818303038152906040526119fe565b7f2f31a519505e6ea83ea92d4e2be8152636a26156602859f0463da6ba9c29cae082824260405161135a939291906127a9565b60405180910390a15050565b60008054906101000a900473ffffffffffffffffffffffffffffffffffffffff1673ffffffffffffffffffffffffffffffffffffffff163373ffffffffffffffffffffffffffffffffffffffff16146113f4576040517f08c379a00000000000000000000000000000000000000000000000000000000081526004016113eb906123ec565b60405180910390fd5b6003826040516114049190612448565b908152602001604051809103902060000160009054906101000a900460ff16611462576040517f08c379a000000000000000000000000000000000000000000000000000000000815260040161145990612dd2565b60405180910390fd5b4281116114a4576040517f08c379a000000000000000000000000000000000000000000000000000000000815260040161149b90612eac565b60405180910390fd5b806003836040516114b59190612448565b90815260200160405180910390206005018190555061153282336040518060400160405280600c81526020017f444541444c494e455f534554000000000000000000000000000000000000000081525061150e85611b44565b60405160200161151e9190612f18565b6040516020818303038152906040526119fe565b7f052570264eb8a0348e0e4a1b1bb79b2604498d7014527901e93344a3cb09d5558282604051611563929190612f3a565b60405180910390a15050565b6001818051602081018201805184825260208301602085012081835280955050505050506000915090508060000160009054906101000a900460ff16908060000160019054906101000a900460ff16908060010180546115ce906124fa565b80601f01602080910402602001604051908101604052809291908181526020018280546115fa906124fa565b80156116475780601f1061161c57610100808354040283529160200191611647565b820191906000526020600020905b81548152906001019060200180831161162a57829003601f168201915b5050505050908060020154905084565b60028280516020810182018051848252602083016020850120818352809550505050505081805160208101820180518482526020830160208501208183528095505050505050600091509150508060000160009054906101000a900460ff16908060010180546116c6906124fa565b80601f01602080910402602001604051908101604052809291908181526020018280546116f2906124fa565b801561173f5780601f106117145761010080835404028352916020019161173f565b820191906000526020600020905b81548152906001019060200180831161172257829003601f168201915b505050505090806002018054611754906124fa565b80601f0160208091040260200160405190810160405280929190818152602001828054611780906124fa565b80156117cd5780601f106117a2576101008083540402835291602001916117cd565b820191906000526020600020905b8154815290600101906020018083116117b057829003601f168201915b5050505050908060030180546117e2906124fa565b80601f016020809104026020016040519081016040528092919081815260200182805461180e906124fa565b801561185b5780601f106118305761010080835404028352916020019161185b565b820191906000526020600020905b81548152906001019060200180831161183e57829003601f168201915b5050505050908060040160009054906101000a900473ffffffffffffffffffffffffffffffffffffffff16908060050154908060060154908060070180546118a2906124fa565b80601f01602080910402602001604051908101604052809291908181526020018280546118ce906124fa565b801561191b5780601f106118f05761010080835404028352916020019161191b565b820191906000526020600020905b8154815290600101906020018083116118fe57829003601f168201915b5050505050905088565b60006003826040516119379190612448565b908152602001604051809103902060000160009054906101000a900460ff16611995576040517f08c379a000000000000000000000000000000000000000000000000000000000815260040161198c90612dd2565b60405180910390fd5b60006003836040516119a79190612448565b9081526020016040518091039020600501549050600081036119cd5760019150506119d5565b804211159150505b919050565b60008054906101000a900473ffffffffffffffffffffffffffffffffffffffff1681565b600060405180608001604052808573ffffffffffffffffffffffffffffffffffffffff168152602001848152602001838152602001428152509050600485604051611a499190612448565b908152602001604051809103902081908060018154018082558091505060019003906000526020600020906004020160009091909190915060008201518160000160006101000a81548173ffffffffffffffffffffffffffffffffffffffff021916908373ffffffffffffffffffffffffffffffffffffffff1602179055506020820151816001019081611add91906126d7565b506040820151816002019081611af391906126d7565b506060820151816003015550507f894124ab7c74b0e9a122d53df4981f2179d417659c9f76ff9acda517ac4c42b985858542604051611b359493929190612f6a565b60405180910390a15050505050565b606060008203611b8b576040518060400160405280600181526020017f30000000000000000000000000000000000000000000000000000000000000008152509050611ca5565b600082905060005b60008214611bbd578080611ba690612fec565b915050600a82611bb69190613063565b9150611b93565b60008167ffffffffffffffff811115611bd957611bd8611cd9565b5b6040519080825280601f01601f191660200182016040528015611c0b5781602001600182028036833780820191505090505b50905060008290508593505b60008414611c9d57600a84611c2c9190613094565b6030611c3891906130c5565b60f81b8282611c46906130f9565b92508281518110611c5a57611c59613122565b5b60200101907effffffffffffffffffffffffffffffffffffffffffffffffffffffffffffff1916908160001a905350600a84611c969190613063565b9350611c17565b819450505050505b919050565b6000604051905090565b600080fd5b600080fd5b600080fd5b600080fd5b6000601f19601f8301169050919050565b7f4e487b7100000000000000000000000000000000000000000000000000000000600052604160045260246000fd5b611d1182611cc8565b810181811067ffffffffffffffff82111715611d3057611d2f611cd9565b5b80604052505050565b6000611d43611caa565b9050611d4f8282611d08565b919050565b600067ffffffffffffffff821115611d6f57611d6e611cd9565b5b611d7882611cc8565b9050602081019050919050565b82818337600083830152505050565b6000611da7611da284611d54565b611d39565b905082815260208101848484011115611dc357611dc2611cc3565b5b611dce848285611d85565b509392505050565b600082601f830112611deb57611dea611cbe565b5b8135611dfb848260208601611d94565b91505092915050565b60008060408385031215611e1b57611e1a611cb4565b5b600083013567ffffffffffffffff811115611e3957611e38611cb9565b5b611e4585828601611dd6565b925050602083013567ffffffffffffffff811115611e6657611e65611cb9565b5b611e7285828601611dd6565b9150509250929050565b60008060008060808587031215611e9657611e95611cb4565b5b600085013567ffffffffffffffff811115611eb457611eb3611cb9565b5b611ec087828801611dd6565b945050602085013567ffffffffffffffff811115611ee157611ee0611cb9565b5b611eed87828801611dd6565b935050604085013567ffffffffffffffff811115611f0e57611f0d611cb9565b5b611f1a87828801611dd6565b925050606085013567ffffffffffffffff811115611f3b57611f3a611cb9565b5b611f4787828801611dd6565b91505092959194509250565b600060208284031215611f6957611f68611cb4565b5b600082013567ffffffffffffffff811115611f8757611f86611cb9565b5b611f9384828501611dd6565b91505092915050565b60008115159050919050565b611fb181611f9c565b82525050565b600081519050919050565b600082825260208201905092915050565b60005b83811015611ff1578082015181840152602081019050611fd6565b60008484015250505050565b600061200882611fb7565b6120128185611fc2565b9350612022818560208601611fd3565b61202b81611cc8565b840191505092915050565b6000819050919050565b61204981612036565b82525050565b60006080820190506120646000830187611fa8565b81810360208301526120768186611ffd565b90506120856040830185612040565b6120926060830184612040565b95945050505050565b6120a481612036565b81146120af57600080fd5b50565b6000813590506120c18161209b565b92915050565b600080604083850312156120de576120dd611cb4565b5b600083013567ffffffffffffffff8111156120fc576120fb611cb9565b5b61210885828601611dd6565b9250506020612119858286016120b2565b9150509250929050565b600073ffffffffffffffffffffffffffffffffffffffff82169050919050565b600061214e82612123565b9050919050565b61215e81612143565b82525050565b60006080820190506121796000830187612155565b818103602083015261218b8186611ffd565b9050818103604083015261219f8185611ffd565b90506121ae6060830184612040565b95945050505050565b6000806000606084860312156121d0576121cf611cb4565b5b600084013567ffffffffffffffff8111156121ee576121ed611cb9565b5b6121fa86828701611dd6565b935050602084013567ffffffffffffffff81111561221b5761221a611cb9565b5b61222786828701611dd6565b925050604084013567ffffffffffffffff81111561224857612247611cb9565b5b61225486828701611dd6565b9150509250925092565b60006080820190506122736000830187611fa8565b6122806020830186611fa8565b81810360408301526122928185611ffd565b90506122a16060830184612040565b95945050505050565b6000610100820190506122c0600083018b611fa8565b81810360208301526122d2818a611ffd565b905081810360408301526122e68189611ffd565b905081810360608301526122fa8188611ffd565b90506123096080830187612155565b61231660a0830186612040565b61232360c0830185612040565b81810360e08301526123358184611ffd565b90509998505050505050505050565b60006020820190506123596000830184611fa8565b92915050565b60006020820190506123746000830184612155565b92915050565b7f4f6e6c792061646d696e2063616e2063616c6c20746869732066756e6374696f60008201527f6e00000000000000000000000000000000000000000000000000000000000000602082015250565b60006123d6602183611fc2565b91506123e18261237a565b604082019050919050565b60006020820190508181036000830152612405816123c9565b9050919050565b600081905092915050565b600061242282611fb7565b61242c818561240c565b935061243c818560208601611fd3565b80840191505092915050565b60006124548284612417565b915081905092915050565b7f53747564656e7420616c72656164792065786973747300000000000000000000600082015250565b6000612495601683611fc2565b91506124a08261245f565b602082019050919050565b600060208201905081810360008301526124c481612488565b9050919050565b7f4e487b7100000000000000000000000000000000000000000000000000000000600052602260045260246000fd5b6000600282049050600182168061251257607f821691505b602082108103612525576125246124cb565b5b50919050565b60008190508160005260206000209050919050565b60006020601f8301049050919050565b600082821b905092915050565b60006008830261258d7fffffffffffffffffffffffffffffffffffffffffffffffffffffffffffffffff82612550565b6125978683612550565b95508019841693508086168417925050509392505050565b6000819050919050565b60006125d46125cf6125ca84612036565b6125af565b612036565b9050919050565b6000819050919050565b6125ee836125b9565b6126026125fa826125db565b84845461255d565b825550505050565b600090565b61261761260a565b6126228184846125e5565b505050565b5b818110156126465761263b60008261260f565b600181019050612628565b5050565b601f82111561268b5761265c8161252b565b61266584612540565b81016020851015612674578190505b61268861268085612540565b830182612627565b50505b505050565b600082821c905092915050565b60006126ae60001984600802612690565b1980831691505092915050565b60006126c7838361269d565b9150826002028217905092915050565b6126e082611fb7565b67ffffffffffffffff8111156126f9576126f8611cd9565b5b61270382546124fa565b61270e82828561264a565b600060209050601f831160018114612741576000841561272f578287015190505b61273985826126bb565b8655506127a1565b601f19841661274f8661252b565b60005b8281101561277757848901518255600182019150602085019450602081019050612752565b868310156127945784890151612790601f89168261269d565b8355505b6001600288020188555050505b505050505050565b600060608201905081810360008301526127c38186611ffd565b905081810360208301526127d78185611ffd565b90506127e66040830184612040565b949350505050565b7f4f6e6c792073746166662063616e2063616c6c20746869732066756e6374696f60008201527f6e00000000000000000000000000000000000000000000000000000000000000602082015250565b600061284a602183611fc2565b9150612855826127ee565b604082019050919050565b600060208201905081810360008301526128798161283d565b9050919050565b7f53747564656e7420646f6573206e6f7420657869737400000000000000000000600082015250565b60006128b6601683611fc2565b91506128c182612880565b602082019050919050565b600060208201905081810360008301526128e5816128a9565b9050919050565b7f446f63756d656e7420646f6573206e6f74206578697374000000000000000000600082015250565b6000612922601783611fc2565b915061292d826128ec565b602082019050919050565b6000602082019050818103600083015261295181612915565b9050919050565b7f617070726f766564000000000000000000000000000000000000000000000000600082015250565b600061298e60088361240c565b915061299982612958565b600882019050919050565b60006129af82612981565b9150819050919050565b7f72656a6563746564000000000000000000000000000000000000000000000000600082015250565b60006129ef60088361240c565b91506129fa826129b9565b600882019050919050565b6000612a10826129e2565b9150819050919050565b7f537461747573206d7573742062652027617070726f76656427206f722027726560008201527f6a65637465642700000000000000000000000000000000000000000000000000602082015250565b6000612a76602783611fc2565b9150612a8182612a1a565b604082019050919050565b60006020820190508181036000830152612aa581612a69565b9050919050565b7f446f63756d656e742072657669657765643a2000000000000000000000000000600082015250565b6000612ae260138361240c565b9150612aed82612aac565b601382019050919050565b7f202d200000000000000000000000000000000000000000000000000000000000600082015250565b6000612b2e60038361240c565b9150612b3982612af8565b600382019050919050565b6000612b4f82612ad5565b9150612b5b8285612417565b9150612b6682612b21565b9150612b728284612417565b91508190509392505050565b600060a0820190508181036000830152612b988188611ffd565b90508181036020830152612bac8187611ffd565b90508181036040830152612bc08186611ffd565b9050612bcf6060830185612155565b612bdc6080830184612040565b9695505050505050565b7f446f63756d656e7420616c726561647920657869737473000000000000000000600082015250565b6000612c1c601783611fc2565b9150612c2782612be6565b602082019050919050565b60006020820190508181036000830152612c4b81612c0f565b9050919050565b7f446f63756d656e742075706c6f616465643a2000000000000000000000000000600082015250565b6000612c8860138361240c565b9150612c9382612c52565b601382019050919050565b6000612ca982612c7b565b9150612cb58284612417565b915081905092915050565b60006080820190508181036000830152612cda8187611ffd565b90508181036020830152612cee8186611ffd565b90508181036040830152612d028185611ffd565b9050612d116060830184612040565b95945050505050565b7f53747564656e7420616c72656164792076657269666965640000000000000000600082015250565b6000612d50601883611fc2565b9150612d5b82612d1a565b602082019050919050565b60006020820190508181036000830152612d7f81612d43565b9050919050565b7f4170706c69636174696f6e20646f6573206e6f74206578697374000000000000600082015250565b6000612dbc601a83611fc2565b9150612dc782612d86565b602082019050919050565b60006020820190508181036000830152612deb81612daf565b9050919050565b7f4170706c69636174696f6e20737461747573207570646174656420746f3a2000600082015250565b6000612e28601f8361240c565b9150612e3382612df2565b601f82019050919050565b6000612e4982612e1b565b9150612e558284612417565b915081905092915050565b7f446561646c696e65206d75737420626520696e20746865206675747572650000600082015250565b6000612e96601e83611fc2565b9150612ea182612e60565b602082019050919050565b60006020820190508181036000830152612ec581612e89565b9050919050565b7f446561646c696e652073657420666f723a200000000000000000000000000000600082015250565b6000612f0260128361240c565b9150612f0d82612ecc565b601282019050919050565b6000612f2382612ef5565b9150612f2f8284612417565b915081905092915050565b60006040820190508181036000830152612f548185611ffd565b9050612f636020830184612040565b9392505050565b60006080820190508181036000830152612f848187611ffd565b9050612f936020830186612155565b8181036040830152612fa58185611ffd565b9050612fb46060830184612040565b95945050505050565b7f4e487b7100000000000000000000000000000000000000000000000000000000600052601160045260246000fd5b6000612ff782612036565b91507fffffffffffffffffffffffffffffffffffffffffffffffffffffffffffffffff820361302957613028612fbd565b5b600182019050919050565b7f4e487b7100000000000000000000000000000000000000000000000000000000600052601260045260246000fd5b600061306e82612036565b915061307983612036565b92508261308957613088613034565b5b828204905092915050565b600061309f82612036565b91506130aa83612036565b9250826130ba576130b9613034565b5b828206905092915050565b60006130d082612036565b91506130db83612036565b92508282019050808211156130f3576130f2612fbd565b5b92915050565b600061310482612036565b91506000820361311757613116612fbd565b5b600182039050919050565b7f4e487b7100000000000000000000000000000000000000000000000000000000600052603260045260246000fdfea2646970667358221220f80b9e682f9b3c8a5e1d46b8d2f6e01f79eb7c4fed3e996eec324c0c7ccd76b264736f6c63430008110033",
  "linkReferences": {},
  "deployedLinkReferences": {}
}